{
	"contracts/ExampleStrings.sol": {
		"ExampleStrings": {
			"abi": [
				{
					"inputs": [
						{
							"internalType": "string",
							"name": "_myString",
							"type": "string"
						}
					],
					"name": "compareTwoStrings",
					"outputs": [
						{
							"internalType": "bool",
							"name": "",
							"type": "bool"
						}
					],
					"stateMutability": "view",
					"type": "function"
				},
				{
					"inputs": [],
					"name": "myBytes",
					"outputs": [
						{
							"internalType": "bytes",
							"name": "",
							"type": "bytes"
						}
					],
					"stateMutability": "view",
					"type": "function"
				},
				{
					"inputs": [],
					"name": "myString",
					"outputs": [
						{
							"internalType": "string",
							"name": "",
							"type": "string"
						}
					],
					"stateMutability": "view",
					"type": "function"
				},
				{
					"inputs": [
						{
							"internalType": "string",
							"name": "_myString",
							"type": "string"
						}
					],
					"name": "setMyString",
					"outputs": [],
					"stateMutability": "nonpayable",
					"type": "function"
				}
			],
			"devdoc": {
				"kind": "dev",
				"methods": {},
				"version": 1
			},
			"evm": {
				"assembly": "    /* \"contracts/ExampleStrings.sol\":60:491  contract ExampleStrings {... */\n  mstore(0x40, 0x80)\n    /* \"contracts/ExampleStrings.sol\":93:131  string public myString = \"Hello World\" */\n  mload(0x40)\n  dup1\n  0x40\n  add\n  0x40\n  mstore\n  dup1\n  0x0b\n  dup2\n  mstore\n  0x20\n  add\n  0x48656c6c6f20576f726c64000000000000000000000000000000000000000000\n  dup2\n  mstore\n  pop\n  0x00\n  swap1\n  dup2\n  tag_1\n  swap2\n  swap1\n  tag_2\n  jump\t// in\ntag_1:\n  pop\n    /* \"contracts/ExampleStrings.sol\":140:176  bytes public myBytes = \"Hello World\" */\n  mload(0x40)\n  dup1\n  0x40\n  add\n  0x40\n  mstore\n  dup1\n  0x0b\n  dup2\n  mstore\n  0x20\n  add\n  0x48656c6c6f20576f726c64000000000000000000000000000000000000000000\n  dup2\n  mstore\n  pop\n  0x01\n  swap1\n  dup2\n  tag_3\n  swap2\n  swap1\n  tag_4\n  jump\t// in\ntag_3:\n  pop\n    /* \"contracts/ExampleStrings.sol\":60:491  contract ExampleStrings {... */\n  callvalue\n  dup1\n  iszero\n  tag_5\n  jumpi\n  0x00\n  dup1\n  revert\ntag_5:\n  pop\n  jump(tag_6)\n    /* \"#utility.yul\":7:106   */\ntag_7:\n    /* \"#utility.yul\":59:65   */\n  0x00\n    /* \"#utility.yul\":93:98   */\n  dup2\n    /* \"#utility.yul\":87:99   */\n  mload\n    /* \"#utility.yul\":77:99   */\n  swap1\n  pop\n    /* \"#utility.yul\":7:106   */\n  swap2\n  swap1\n  pop\n  jump\t// out\n    /* \"#utility.yul\":112:292   */\ntag_8:\n    /* \"#utility.yul\":160:237   */\n  0x4e487b7100000000000000000000000000000000000000000000000000000000\n    /* \"#utility.yul\":157:158   */\n  0x00\n    /* \"#utility.yul\":150:238   */\n  mstore\n    /* \"#utility.yul\":257:261   */\n  0x41\n    /* \"#utility.yul\":254:255   */\n  0x04\n    /* \"#utility.yul\":247:262   */\n  mstore\n    /* \"#utility.yul\":281:285   */\n  0x24\n    /* \"#utility.yul\":278:279   */\n  0x00\n    /* \"#utility.yul\":271:286   */\n  revert\n    /* \"#utility.yul\":298:478   */\ntag_9:\n    /* \"#utility.yul\":346:423   */\n  0x4e487b7100000000000000000000000000000000000000000000000000000000\n    /* \"#utility.yul\":343:344   */\n  0x00\n    /* \"#utility.yul\":336:424   */\n  mstore\n    /* \"#utility.yul\":443:447   */\n  0x22\n    /* \"#utility.yul\":440:441   */\n  0x04\n    /* \"#utility.yul\":433:448   */\n  mstore\n    /* \"#utility.yul\":467:471   */\n  0x24\n    /* \"#utility.yul\":464:465   */\n  0x00\n    /* \"#utility.yul\":457:472   */\n  revert\n    /* \"#utility.yul\":484:804   */\ntag_10:\n    /* \"#utility.yul\":528:534   */\n  0x00\n    /* \"#utility.yul\":565:566   */\n  0x02\n    /* \"#utility.yul\":559:563   */\n  dup3\n    /* \"#utility.yul\":555:567   */\n  div\n    /* \"#utility.yul\":545:567   */\n  swap1\n  pop\n    /* \"#utility.yul\":612:613   */\n  0x01\n    /* \"#utility.yul\":606:610   */\n  dup3\n    /* \"#utility.yul\":602:614   */\n  and\n    /* \"#utility.yul\":633:651   */\n  dup1\n    /* \"#utility.yul\":623:704   */\n  tag_34\n  jumpi\n    /* \"#utility.yul\":689:693   */\n  0x7f\n    /* \"#utility.yul\":681:687   */\n  dup3\n    /* \"#utility.yul\":677:694   */\n  and\n    /* \"#utility.yul\":667:694   */\n  swap2\n  pop\n    /* \"#utility.yul\":623:704   */\ntag_34:\n    /* \"#utility.yul\":751:753   */\n  0x20\n    /* \"#utility.yul\":743:749   */\n  dup3\n    /* \"#utility.yul\":740:754   */\n  lt\n    /* \"#utility.yul\":720:738   */\n  dup2\n    /* \"#utility.yul\":717:755   */\n  sub\n    /* \"#utility.yul\":714:798   */\n  tag_35\n  jumpi\n    /* \"#utility.yul\":770:788   */\n  tag_36\n  tag_9\n  jump\t// in\ntag_36:\n    /* \"#utility.yul\":714:798   */\ntag_35:\n    /* \"#utility.yul\":535:804   */\n  pop\n    /* \"#utility.yul\":484:804   */\n  swap2\n  swap1\n  pop\n  jump\t// out\n    /* \"#utility.yul\":810:951   */\ntag_11:\n    /* \"#utility.yul\":859:863   */\n  0x00\n    /* \"#utility.yul\":882:885   */\n  dup2\n    /* \"#utility.yul\":874:885   */\n  swap1\n  pop\n    /* \"#utility.yul\":905:908   */\n  dup2\n    /* \"#utility.yul\":902:903   */\n  0x00\n    /* \"#utility.yul\":895:909   */\n  mstore\n    /* \"#utility.yul\":939:943   */\n  0x20\n    /* \"#utility.yul\":936:937   */\n  0x00\n    /* \"#utility.yul\":926:944   */\n  keccak256\n    /* \"#utility.yul\":918:944   */\n  swap1\n  pop\n    /* \"#utility.yul\":810:951   */\n  swap2\n  swap1\n  pop\n  jump\t// out\n    /* \"#utility.yul\":957:1050   */\ntag_12:\n    /* \"#utility.yul\":994:1000   */\n  0x00\n    /* \"#utility.yul\":1041:1043   */\n  0x20\n    /* \"#utility.yul\":1036:1038   */\n  0x1f\n    /* \"#utility.yul\":1029:1034   */\n  dup4\n    /* \"#utility.yul\":1025:1039   */\n  add\n    /* \"#utility.yul\":1021:1044   */\n  div\n    /* \"#utility.yul\":1011:1044   */\n  swap1\n  pop\n    /* \"#utility.yul\":957:1050   */\n  swap2\n  swap1\n  pop\n  jump\t// out\n    /* \"#utility.yul\":1056:1163   */\ntag_13:\n    /* \"#utility.yul\":1100:1108   */\n  0x00\n    /* \"#utility.yul\":1150:1155   */\n  dup3\n    /* \"#utility.yul\":1144:1148   */\n  dup3\n    /* \"#utility.yul\":1140:1156   */\n  shl\n    /* \"#utility.yul\":1119:1156   */\n  swap1\n  pop\n    /* \"#utility.yul\":1056:1163   */\n  swap3\n  swap2\n  pop\n  pop\n  jump\t// out\n    /* \"#utility.yul\":1169:1562   */\ntag_14:\n    /* \"#utility.yul\":1238:1244   */\n  0x00\n    /* \"#utility.yul\":1288:1289   */\n  0x08\n    /* \"#utility.yul\":1276:1286   */\n  dup4\n    /* \"#utility.yul\":1272:1290   */\n  mul\n    /* \"#utility.yul\":1311:1408   */\n  tag_41\n    /* \"#utility.yul\":1341:1407   */\n  0xffffffffffffffffffffffffffffffffffffffffffffffffffffffffffffffff\n    /* \"#utility.yul\":1330:1339   */\n  dup3\n    /* \"#utility.yul\":1311:1408   */\n  tag_13\n  jump\t// in\ntag_41:\n    /* \"#utility.yul\":1429:1468   */\n  tag_42\n    /* \"#utility.yul\":1459:1467   */\n  dup7\n    /* \"#utility.yul\":1448:1457   */\n  dup4\n    /* \"#utility.yul\":1429:1468   */\n  tag_13\n  jump\t// in\ntag_42:\n    /* \"#utility.yul\":1417:1468   */\n  swap6\n  pop\n    /* \"#utility.yul\":1501:1505   */\n  dup1\n    /* \"#utility.yul\":1497:1506   */\n  not\n    /* \"#utility.yul\":1490:1495   */\n  dup5\n    /* \"#utility.yul\":1486:1507   */\n  and\n    /* \"#utility.yul\":1477:1507   */\n  swap4\n  pop\n    /* \"#utility.yul\":1550:1554   */\n  dup1\n    /* \"#utility.yul\":1540:1548   */\n  dup7\n    /* \"#utility.yul\":1536:1555   */\n  and\n    /* \"#utility.yul\":1529:1534   */\n  dup5\n    /* \"#utility.yul\":1526:1556   */\n  or\n    /* \"#utility.yul\":1516:1556   */\n  swap3\n  pop\n    /* \"#utility.yul\":1245:1562   */\n  pop\n  pop\n    /* \"#utility.yul\":1169:1562   */\n  swap4\n  swap3\n  pop\n  pop\n  pop\n  jump\t// out\n    /* \"#utility.yul\":1568:1645   */\ntag_15:\n    /* \"#utility.yul\":1605:1612   */\n  0x00\n    /* \"#utility.yul\":1634:1639   */\n  dup2\n    /* \"#utility.yul\":1623:1639   */\n  swap1\n  pop\n    /* \"#utility.yul\":1568:1645   */\n  swap2\n  swap1\n  pop\n  jump\t// out\n    /* \"#utility.yul\":1651:1711   */\ntag_16:\n    /* \"#utility.yul\":1679:1682   */\n  0x00\n    /* \"#utility.yul\":1700:1705   */\n  dup2\n    /* \"#utility.yul\":1693:1705   */\n  swap1\n  pop\n    /* \"#utility.yul\":1651:1711   */\n  swap2\n  swap1\n  pop\n  jump\t// out\n    /* \"#utility.yul\":1717:1859   */\ntag_17:\n    /* \"#utility.yul\":1767:1776   */\n  0x00\n    /* \"#utility.yul\":1800:1853   */\n  tag_46\n    /* \"#utility.yul\":1818:1852   */\n  tag_47\n    /* \"#utility.yul\":1827:1851   */\n  tag_48\n    /* \"#utility.yul\":1845:1850   */\n  dup5\n    /* \"#utility.yul\":1827:1851   */\n  tag_15\n  jump\t// in\ntag_48:\n    /* \"#utility.yul\":1818:1852   */\n  tag_16\n  jump\t// in\ntag_47:\n    /* \"#utility.yul\":1800:1853   */\n  tag_15\n  jump\t// in\ntag_46:\n    /* \"#utility.yul\":1787:1853   */\n  swap1\n  pop\n    /* \"#utility.yul\":1717:1859   */\n  swap2\n  swap1\n  pop\n  jump\t// out\n    /* \"#utility.yul\":1865:1940   */\ntag_18:\n    /* \"#utility.yul\":1908:1911   */\n  0x00\n    /* \"#utility.yul\":1929:1934   */\n  dup2\n    /* \"#utility.yul\":1922:1934   */\n  swap1\n  pop\n    /* \"#utility.yul\":1865:1940   */\n  swap2\n  swap1\n  pop\n  jump\t// out\n    /* \"#utility.yul\":1946:2215   */\ntag_19:\n    /* \"#utility.yul\":2056:2095   */\n  tag_51\n    /* \"#utility.yul\":2087:2094   */\n  dup4\n    /* \"#utility.yul\":2056:2095   */\n  tag_17\n  jump\t// in\ntag_51:\n    /* \"#utility.yul\":2117:2208   */\n  tag_52\n    /* \"#utility.yul\":2166:2207   */\n  tag_53\n    /* \"#utility.yul\":2190:2206   */\n  dup3\n    /* \"#utility.yul\":2166:2207   */\n  tag_18\n  jump\t// in\ntag_53:\n    /* \"#utility.yul\":2158:2164   */\n  dup5\n    /* \"#utility.yul\":2151:2155   */\n  dup5\n    /* \"#utility.yul\":2145:2156   */\n  sload\n    /* \"#utility.yul\":2117:2208   */\n  tag_14\n  jump\t// in\ntag_52:\n    /* \"#utility.yul\":2111:2115   */\n  dup3\n    /* \"#utility.yul\":2104:2209   */\n  sstore\n    /* \"#utility.yul\":2022:2215   */\n  pop\n    /* \"#utility.yul\":1946:2215   */\n  pop\n  pop\n  pop\n  jump\t// out\n    /* \"#utility.yul\":2221:2294   */\ntag_20:\n    /* \"#utility.yul\":2266:2269   */\n  0x00\n    /* \"#utility.yul\":2221:2294   */\n  swap1\n  jump\t// out\n    /* \"#utility.yul\":2300:2489   */\ntag_21:\n    /* \"#utility.yul\":2377:2409   */\n  tag_56\n  tag_20\n  jump\t// in\ntag_56:\n    /* \"#utility.yul\":2418:2483   */\n  tag_57\n    /* \"#utility.yul\":2476:2482   */\n  dup2\n    /* \"#utility.yul\":2468:2474   */\n  dup5\n    /* \"#utility.yul\":2462:2466   */\n  dup5\n    /* \"#utility.yul\":2418:2483   */\n  tag_19\n  jump\t// in\ntag_57:\n    /* \"#utility.yul\":2353:2489   */\n  pop\n    /* \"#utility.yul\":2300:2489   */\n  pop\n  pop\n  jump\t// out\n    /* \"#utility.yul\":2495:2681   */\ntag_22:\n    /* \"#utility.yul\":2555:2675   */\ntag_59:\n    /* \"#utility.yul\":2572:2575   */\n  dup2\n    /* \"#utility.yul\":2565:2570   */\n  dup2\n    /* \"#utility.yul\":2562:2576   */\n  lt\n    /* \"#utility.yul\":2555:2675   */\n  iszero\n  tag_61\n  jumpi\n    /* \"#utility.yul\":2626:2665   */\n  tag_62\n    /* \"#utility.yul\":2663:2664   */\n  0x00\n    /* \"#utility.yul\":2656:2661   */\n  dup3\n    /* \"#utility.yul\":2626:2665   */\n  tag_21\n  jump\t// in\ntag_62:\n    /* \"#utility.yul\":2599:2600   */\n  0x01\n    /* \"#utility.yul\":2592:2597   */\n  dup2\n    /* \"#utility.yul\":2588:2601   */\n  add\n    /* \"#utility.yul\":2579:2601   */\n  swap1\n  pop\n    /* \"#utility.yul\":2555:2675   */\n  jump(tag_59)\ntag_61:\n    /* \"#utility.yul\":2495:2681   */\n  pop\n  pop\n  jump\t// out\n    /* \"#utility.yul\":2687:3230   */\ntag_23:\n    /* \"#utility.yul\":2788:2790   */\n  0x1f\n    /* \"#utility.yul\":2783:2786   */\n  dup3\n    /* \"#utility.yul\":2780:2791   */\n  gt\n    /* \"#utility.yul\":2777:3223   */\n  iszero\n  tag_64\n  jumpi\n    /* \"#utility.yul\":2822:2860   */\n  tag_65\n    /* \"#utility.yul\":2854:2859   */\n  dup2\n    /* \"#utility.yul\":2822:2860   */\n  tag_11\n  jump\t// in\ntag_65:\n    /* \"#utility.yul\":2906:2935   */\n  tag_66\n    /* \"#utility.yul\":2924:2934   */\n  dup5\n    /* \"#utility.yul\":2906:2935   */\n  tag_12\n  jump\t// in\ntag_66:\n    /* \"#utility.yul\":2896:2904   */\n  dup2\n    /* \"#utility.yul\":2892:2936   */\n  add\n    /* \"#utility.yul\":3089:3091   */\n  0x20\n    /* \"#utility.yul\":3077:3087   */\n  dup6\n    /* \"#utility.yul\":3074:3092   */\n  lt\n    /* \"#utility.yul\":3071:3120   */\n  iszero\n  tag_67\n  jumpi\n    /* \"#utility.yul\":3110:3118   */\n  dup2\n    /* \"#utility.yul\":3095:3118   */\n  swap1\n  pop\n    /* \"#utility.yul\":3071:3120   */\ntag_67:\n    /* \"#utility.yul\":3133:3213   */\n  tag_68\n    /* \"#utility.yul\":3189:3211   */\n  tag_69\n    /* \"#utility.yul\":3207:3210   */\n  dup6\n    /* \"#utility.yul\":3189:3211   */\n  tag_12\n  jump\t// in\ntag_69:\n    /* \"#utility.yul\":3179:3187   */\n  dup4\n    /* \"#utility.yul\":3175:3212   */\n  add\n    /* \"#utility.yul\":3162:3173   */\n  dup3\n    /* \"#utility.yul\":3133:3213   */\n  tag_22\n  jump\t// in\ntag_68:\n    /* \"#utility.yul\":2792:3223   */\n  pop\n  pop\n    /* \"#utility.yul\":2777:3223   */\ntag_64:\n    /* \"#utility.yul\":2687:3230   */\n  pop\n  pop\n  pop\n  jump\t// out\n    /* \"#utility.yul\":3236:3353   */\ntag_24:\n    /* \"#utility.yul\":3290:3298   */\n  0x00\n    /* \"#utility.yul\":3340:3345   */\n  dup3\n    /* \"#utility.yul\":3334:3338   */\n  dup3\n    /* \"#utility.yul\":3330:3346   */\n  shr\n    /* \"#utility.yul\":3309:3346   */\n  swap1\n  pop\n    /* \"#utility.yul\":3236:3353   */\n  swap3\n  swap2\n  pop\n  pop\n  jump\t// out\n    /* \"#utility.yul\":3359:3528   */\ntag_25:\n    /* \"#utility.yul\":3403:3409   */\n  0x00\n    /* \"#utility.yul\":3436:3487   */\n  tag_72\n    /* \"#utility.yul\":3484:3485   */\n  0x00\n    /* \"#utility.yul\":3480:3486   */\n  not\n    /* \"#utility.yul\":3472:3477   */\n  dup5\n    /* \"#utility.yul\":3469:3470   */\n  0x08\n    /* \"#utility.yul\":3465:3478   */\n  mul\n    /* \"#utility.yul\":3436:3487   */\n  tag_24\n  jump\t// in\ntag_72:\n    /* \"#utility.yul\":3432:3488   */\n  not\n    /* \"#utility.yul\":3517:3521   */\n  dup1\n    /* \"#utility.yul\":3511:3515   */\n  dup4\n    /* \"#utility.yul\":3507:3522   */\n  and\n    /* \"#utility.yul\":3497:3522   */\n  swap2\n  pop\n    /* \"#utility.yul\":3410:3528   */\n  pop\n    /* \"#utility.yul\":3359:3528   */\n  swap3\n  swap2\n  pop\n  pop\n  jump\t// out\n    /* \"#utility.yul\":3533:3828   */\ntag_26:\n    /* \"#utility.yul\":3609:3613   */\n  0x00\n    /* \"#utility.yul\":3755:3784   */\n  tag_74\n    /* \"#utility.yul\":3780:3783   */\n  dup4\n    /* \"#utility.yul\":3774:3778   */\n  dup4\n    /* \"#utility.yul\":3755:3784   */\n  tag_25\n  jump\t// in\ntag_74:\n    /* \"#utility.yul\":3747:3784   */\n  swap2\n  pop\n    /* \"#utility.yul\":3817:3820   */\n  dup3\n    /* \"#utility.yul\":3814:3815   */\n  0x02\n    /* \"#utility.yul\":3810:3821   */\n  mul\n    /* \"#utility.yul\":3804:3808   */\n  dup3\n    /* \"#utility.yul\":3801:3822   */\n  or\n    /* \"#utility.yul\":3793:3822   */\n  swap1\n  pop\n    /* \"#utility.yul\":3533:3828   */\n  swap3\n  swap2\n  pop\n  pop\n  jump\t// out\n    /* \"#utility.yul\":3833:5228   */\ntag_2:\n    /* \"#utility.yul\":3950:3987   */\n  tag_76\n    /* \"#utility.yul\":3983:3986   */\n  dup3\n    /* \"#utility.yul\":3950:3987   */\n  tag_7\n  jump\t// in\ntag_76:\n    /* \"#utility.yul\":4052:4070   */\n  0xffffffffffffffff\n    /* \"#utility.yul\":4044:4050   */\n  dup2\n    /* \"#utility.yul\":4041:4071   */\n  gt\n    /* \"#utility.yul\":4038:4094   */\n  iszero\n  tag_77\n  jumpi\n    /* \"#utility.yul\":4074:4092   */\n  tag_78\n  tag_8\n  jump\t// in\ntag_78:\n    /* \"#utility.yul\":4038:4094   */\ntag_77:\n    /* \"#utility.yul\":4118:4156   */\n  tag_79\n    /* \"#utility.yul\":4150:4154   */\n  dup3\n    /* \"#utility.yul\":4144:4155   */\n  sload\n    /* \"#utility.yul\":4118:4156   */\n  tag_10\n  jump\t// in\ntag_79:\n    /* \"#utility.yul\":4203:4270   */\n  tag_80\n    /* \"#utility.yul\":4263:4269   */\n  dup3\n    /* \"#utility.yul\":4255:4261   */\n  dup3\n    /* \"#utility.yul\":4249:4253   */\n  dup6\n    /* \"#utility.yul\":4203:4270   */\n  tag_23\n  jump\t// in\ntag_80:\n    /* \"#utility.yul\":4297:4298   */\n  0x00\n    /* \"#utility.yul\":4321:4325   */\n  0x20\n    /* \"#utility.yul\":4308:4325   */\n  swap1\n  pop\n    /* \"#utility.yul\":4353:4355   */\n  0x1f\n    /* \"#utility.yul\":4345:4351   */\n  dup4\n    /* \"#utility.yul\":4342:4356   */\n  gt\n    /* \"#utility.yul\":4370:4371   */\n  0x01\n    /* \"#utility.yul\":4365:4983   */\n  dup2\n  eq\n  tag_82\n  jumpi\n    /* \"#utility.yul\":5027:5028   */\n  0x00\n    /* \"#utility.yul\":5044:5050   */\n  dup5\n    /* \"#utility.yul\":5041:5118   */\n  iszero\n  tag_83\n  jumpi\n    /* \"#utility.yul\":5093:5102   */\n  dup3\n    /* \"#utility.yul\":5088:5091   */\n  dup8\n    /* \"#utility.yul\":5084:5103   */\n  add\n    /* \"#utility.yul\":5078:5104   */\n  mload\n    /* \"#utility.yul\":5069:5104   */\n  swap1\n  pop\n    /* \"#utility.yul\":5041:5118   */\ntag_83:\n    /* \"#utility.yul\":5144:5211   */\n  tag_84\n    /* \"#utility.yul\":5204:5210   */\n  dup6\n    /* \"#utility.yul\":5197:5202   */\n  dup3\n    /* \"#utility.yul\":5144:5211   */\n  tag_26\n  jump\t// in\ntag_84:\n    /* \"#utility.yul\":5138:5142   */\n  dup7\n    /* \"#utility.yul\":5131:5212   */\n  sstore\n    /* \"#utility.yul\":5000:5222   */\n  pop\n    /* \"#utility.yul\":4335:5222   */\n  jump(tag_81)\n    /* \"#utility.yul\":4365:4983   */\ntag_82:\n    /* \"#utility.yul\":4417:4421   */\n  0x1f\n    /* \"#utility.yul\":4413:4422   */\n  not\n    /* \"#utility.yul\":4405:4411   */\n  dup5\n    /* \"#utility.yul\":4401:4423   */\n  and\n    /* \"#utility.yul\":4451:4488   */\n  tag_85\n    /* \"#utility.yul\":4483:4487   */\n  dup7\n    /* \"#utility.yul\":4451:4488   */\n  tag_11\n  jump\t// in\ntag_85:\n    /* \"#utility.yul\":4510:4511   */\n  0x00\n    /* \"#utility.yul\":4524:4732   */\ntag_86:\n    /* \"#utility.yul\":4538:4545   */\n  dup3\n    /* \"#utility.yul\":4535:4536   */\n  dup2\n    /* \"#utility.yul\":4532:4546   */\n  lt\n    /* \"#utility.yul\":4524:4732   */\n  iszero\n  tag_88\n  jumpi\n    /* \"#utility.yul\":4617:4626   */\n  dup5\n    /* \"#utility.yul\":4612:4615   */\n  dup10\n    /* \"#utility.yul\":4608:4627   */\n  add\n    /* \"#utility.yul\":4602:4628   */\n  mload\n    /* \"#utility.yul\":4594:4600   */\n  dup3\n    /* \"#utility.yul\":4587:4629   */\n  sstore\n    /* \"#utility.yul\":4668:4669   */\n  0x01\n    /* \"#utility.yul\":4660:4666   */\n  dup3\n    /* \"#utility.yul\":4656:4670   */\n  add\n    /* \"#utility.yul\":4646:4670   */\n  swap2\n  pop\n    /* \"#utility.yul\":4715:4717   */\n  0x20\n    /* \"#utility.yul\":4704:4713   */\n  dup6\n    /* \"#utility.yul\":4700:4718   */\n  add\n    /* \"#utility.yul\":4687:4718   */\n  swap5\n  pop\n    /* \"#utility.yul\":4561:4565   */\n  0x20\n    /* \"#utility.yul\":4558:4559   */\n  dup2\n    /* \"#utility.yul\":4554:4566   */\n  add\n    /* \"#utility.yul\":4549:4566   */\n  swap1\n  pop\n    /* \"#utility.yul\":4524:4732   */\n  jump(tag_86)\ntag_88:\n    /* \"#utility.yul\":4760:4766   */\n  dup7\n    /* \"#utility.yul\":4751:4758   */\n  dup4\n    /* \"#utility.yul\":4748:4767   */\n  lt\n    /* \"#utility.yul\":4745:4924   */\n  iszero\n  tag_89\n  jumpi\n    /* \"#utility.yul\":4818:4827   */\n  dup5\n    /* \"#utility.yul\":4813:4816   */\n  dup10\n    /* \"#utility.yul\":4809:4828   */\n  add\n    /* \"#utility.yul\":4803:4829   */\n  mload\n    /* \"#utility.yul\":4861:4909   */\n  tag_90\n    /* \"#utility.yul\":4903:4907   */\n  0x1f\n    /* \"#utility.yul\":4895:4901   */\n  dup10\n    /* \"#utility.yul\":4891:4908   */\n  and\n    /* \"#utility.yul\":4880:4889   */\n  dup3\n    /* \"#utility.yul\":4861:4909   */\n  tag_25\n  jump\t// in\ntag_90:\n    /* \"#utility.yul\":4853:4859   */\n  dup4\n    /* \"#utility.yul\":4846:4910   */\n  sstore\n    /* \"#utility.yul\":4768:4924   */\n  pop\n    /* \"#utility.yul\":4745:4924   */\ntag_89:\n    /* \"#utility.yul\":4970:4971   */\n  0x01\n    /* \"#utility.yul\":4966:4967   */\n  0x02\n    /* \"#utility.yul\":4958:4964   */\n  dup9\n    /* \"#utility.yul\":4954:4968   */\n  mul\n    /* \"#utility.yul\":4950:4972   */\n  add\n    /* \"#utility.yul\":4944:4948   */\n  dup9\n    /* \"#utility.yul\":4937:4973   */\n  sstore\n    /* \"#utility.yul\":4372:4983   */\n  pop\n  pop\n  pop\n    /* \"#utility.yul\":4335:5222   */\ntag_81:\n  pop\n    /* \"#utility.yul\":3925:5228   */\n  pop\n  pop\n  pop\n    /* \"#utility.yul\":3833:5228   */\n  pop\n  pop\n  jump\t// out\n    /* \"#utility.yul\":5234:5374   */\ntag_27:\n    /* \"#utility.yul\":5282:5286   */\n  0x00\n    /* \"#utility.yul\":5305:5308   */\n  dup2\n    /* \"#utility.yul\":5297:5308   */\n  swap1\n  pop\n    /* \"#utility.yul\":5328:5331   */\n  dup2\n    /* \"#utility.yul\":5325:5326   */\n  0x00\n    /* \"#utility.yul\":5318:5332   */\n  mstore\n    /* \"#utility.yul\":5362:5366   */\n  0x20\n    /* \"#utility.yul\":5359:5360   */\n  0x00\n    /* \"#utility.yul\":5349:5367   */\n  keccak256\n    /* \"#utility.yul\":5341:5367   */\n  swap1\n  pop\n    /* \"#utility.yul\":5234:5374   */\n  swap2\n  swap1\n  pop\n  jump\t// out\n    /* \"#utility.yul\":5380:5921   */\ntag_28:\n    /* \"#utility.yul\":5480:5482   */\n  0x1f\n    /* \"#utility.yul\":5475:5478   */\n  dup3\n    /* \"#utility.yul\":5472:5483   */\n  gt\n    /* \"#utility.yul\":5469:5914   */\n  iszero\n  tag_93\n  jumpi\n    /* \"#utility.yul\":5514:5551   */\n  tag_94\n    /* \"#utility.yul\":5545:5550   */\n  dup2\n    /* \"#utility.yul\":5514:5551   */\n  tag_27\n  jump\t// in\ntag_94:\n    /* \"#utility.yul\":5597:5626   */\n  tag_95\n    /* \"#utility.yul\":5615:5625   */\n  dup5\n    /* \"#utility.yul\":5597:5626   */\n  tag_12\n  jump\t// in\ntag_95:\n    /* \"#utility.yul\":5587:5595   */\n  dup2\n    /* \"#utility.yul\":5583:5627   */\n  add\n    /* \"#utility.yul\":5780:5782   */\n  0x20\n    /* \"#utility.yul\":5768:5778   */\n  dup6\n    /* \"#utility.yul\":5765:5783   */\n  lt\n    /* \"#utility.yul\":5762:5811   */\n  iszero\n  tag_96\n  jumpi\n    /* \"#utility.yul\":5801:5809   */\n  dup2\n    /* \"#utility.yul\":5786:5809   */\n  swap1\n  pop\n    /* \"#utility.yul\":5762:5811   */\ntag_96:\n    /* \"#utility.yul\":5824:5904   */\n  tag_97\n    /* \"#utility.yul\":5880:5902   */\n  tag_98\n    /* \"#utility.yul\":5898:5901   */\n  dup6\n    /* \"#utility.yul\":5880:5902   */\n  tag_12\n  jump\t// in\ntag_98:\n    /* \"#utility.yul\":5870:5878   */\n  dup4\n    /* \"#utility.yul\":5866:5903   */\n  add\n    /* \"#utility.yul\":5853:5864   */\n  dup3\n    /* \"#utility.yul\":5824:5904   */\n  tag_22\n  jump\t// in\ntag_97:\n    /* \"#utility.yul\":5484:5914   */\n  pop\n  pop\n    /* \"#utility.yul\":5469:5914   */\ntag_93:\n    /* \"#utility.yul\":5380:5921   */\n  pop\n  pop\n  pop\n  jump\t// out\n    /* \"#utility.yul\":5927:7319   */\ntag_4:\n    /* \"#utility.yul\":6043:6080   */\n  tag_100\n    /* \"#utility.yul\":6076:6079   */\n  dup3\n    /* \"#utility.yul\":6043:6080   */\n  tag_7\n  jump\t// in\ntag_100:\n    /* \"#utility.yul\":6145:6163   */\n  0xffffffffffffffff\n    /* \"#utility.yul\":6137:6143   */\n  dup2\n    /* \"#utility.yul\":6134:6164   */\n  gt\n    /* \"#utility.yul\":6131:6187   */\n  iszero\n  tag_101\n  jumpi\n    /* \"#utility.yul\":6167:6185   */\n  tag_102\n  tag_8\n  jump\t// in\ntag_102:\n    /* \"#utility.yul\":6131:6187   */\ntag_101:\n    /* \"#utility.yul\":6211:6249   */\n  tag_103\n    /* \"#utility.yul\":6243:6247   */\n  dup3\n    /* \"#utility.yul\":6237:6248   */\n  sload\n    /* \"#utility.yul\":6211:6249   */\n  tag_10\n  jump\t// in\ntag_103:\n    /* \"#utility.yul\":6296:6362   */\n  tag_104\n    /* \"#utility.yul\":6355:6361   */\n  dup3\n    /* \"#utility.yul\":6347:6353   */\n  dup3\n    /* \"#utility.yul\":6341:6345   */\n  dup6\n    /* \"#utility.yul\":6296:6362   */\n  tag_28\n  jump\t// in\ntag_104:\n    /* \"#utility.yul\":6389:6390   */\n  0x00\n    /* \"#utility.yul\":6413:6417   */\n  0x20\n    /* \"#utility.yul\":6400:6417   */\n  swap1\n  pop\n    /* \"#utility.yul\":6445:6447   */\n  0x1f\n    /* \"#utility.yul\":6437:6443   */\n  dup4\n    /* \"#utility.yul\":6434:6448   */\n  gt\n    /* \"#utility.yul\":6462:6463   */\n  0x01\n    /* \"#utility.yul\":6457:7074   */\n  dup2\n  eq\n  tag_106\n  jumpi\n    /* \"#utility.yul\":7118:7119   */\n  0x00\n    /* \"#utility.yul\":7135:7141   */\n  dup5\n    /* \"#utility.yul\":7132:7209   */\n  iszero\n  tag_107\n  jumpi\n    /* \"#utility.yul\":7184:7193   */\n  dup3\n    /* \"#utility.yul\":7179:7182   */\n  dup8\n    /* \"#utility.yul\":7175:7194   */\n  add\n    /* \"#utility.yul\":7169:7195   */\n  mload\n    /* \"#utility.yul\":7160:7195   */\n  swap1\n  pop\n    /* \"#utility.yul\":7132:7209   */\ntag_107:\n    /* \"#utility.yul\":7235:7302   */\n  tag_108\n    /* \"#utility.yul\":7295:7301   */\n  dup6\n    /* \"#utility.yul\":7288:7293   */\n  dup3\n    /* \"#utility.yul\":7235:7302   */\n  tag_26\n  jump\t// in\ntag_108:\n    /* \"#utility.yul\":7229:7233   */\n  dup7\n    /* \"#utility.yul\":7222:7303   */\n  sstore\n    /* \"#utility.yul\":7091:7313   */\n  pop\n    /* \"#utility.yul\":6427:7313   */\n  jump(tag_105)\n    /* \"#utility.yul\":6457:7074   */\ntag_106:\n    /* \"#utility.yul\":6509:6513   */\n  0x1f\n    /* \"#utility.yul\":6505:6514   */\n  not\n    /* \"#utility.yul\":6497:6503   */\n  dup5\n    /* \"#utility.yul\":6493:6515   */\n  and\n    /* \"#utility.yul\":6543:6579   */\n  tag_109\n    /* \"#utility.yul\":6574:6578   */\n  dup7\n    /* \"#utility.yul\":6543:6579   */\n  tag_27\n  jump\t// in\ntag_109:\n    /* \"#utility.yul\":6601:6602   */\n  0x00\n    /* \"#utility.yul\":6615:6823   */\ntag_110:\n    /* \"#utility.yul\":6629:6636   */\n  dup3\n    /* \"#utility.yul\":6626:6627   */\n  dup2\n    /* \"#utility.yul\":6623:6637   */\n  lt\n    /* \"#utility.yul\":6615:6823   */\n  iszero\n  tag_112\n  jumpi\n    /* \"#utility.yul\":6708:6717   */\n  dup5\n    /* \"#utility.yul\":6703:6706   */\n  dup10\n    /* \"#utility.yul\":6699:6718   */\n  add\n    /* \"#utility.yul\":6693:6719   */\n  mload\n    /* \"#utility.yul\":6685:6691   */\n  dup3\n    /* \"#utility.yul\":6678:6720   */\n  sstore\n    /* \"#utility.yul\":6759:6760   */\n  0x01\n    /* \"#utility.yul\":6751:6757   */\n  dup3\n    /* \"#utility.yul\":6747:6761   */\n  add\n    /* \"#utility.yul\":6737:6761   */\n  swap2\n  pop\n    /* \"#utility.yul\":6806:6808   */\n  0x20\n    /* \"#utility.yul\":6795:6804   */\n  dup6\n    /* \"#utility.yul\":6791:6809   */\n  add\n    /* \"#utility.yul\":6778:6809   */\n  swap5\n  pop\n    /* \"#utility.yul\":6652:6656   */\n  0x20\n    /* \"#utility.yul\":6649:6650   */\n  dup2\n    /* \"#utility.yul\":6645:6657   */\n  add\n    /* \"#utility.yul\":6640:6657   */\n  swap1\n  pop\n    /* \"#utility.yul\":6615:6823   */\n  jump(tag_110)\ntag_112:\n    /* \"#utility.yul\":6851:6857   */\n  dup7\n    /* \"#utility.yul\":6842:6849   */\n  dup4\n    /* \"#utility.yul\":6839:6858   */\n  lt\n    /* \"#utility.yul\":6836:7015   */\n  iszero\n  tag_113\n  jumpi\n    /* \"#utility.yul\":6909:6918   */\n  dup5\n    /* \"#utility.yul\":6904:6907   */\n  dup10\n    /* \"#utility.yul\":6900:6919   */\n  add\n    /* \"#utility.yul\":6894:6920   */\n  mload\n    /* \"#utility.yul\":6952:7000   */\n  tag_114\n    /* \"#utility.yul\":6994:6998   */\n  0x1f\n    /* \"#utility.yul\":6986:6992   */\n  dup10\n    /* \"#utility.yul\":6982:6999   */\n  and\n    /* \"#utility.yul\":6971:6980   */\n  dup3\n    /* \"#utility.yul\":6952:7000   */\n  tag_25\n  jump\t// in\ntag_114:\n    /* \"#utility.yul\":6944:6950   */\n  dup4\n    /* \"#utility.yul\":6937:7001   */\n  sstore\n    /* \"#utility.yul\":6859:7015   */\n  pop\n    /* \"#utility.yul\":6836:7015   */\ntag_113:\n    /* \"#utility.yul\":7061:7062   */\n  0x01\n    /* \"#utility.yul\":7057:7058   */\n  0x02\n    /* \"#utility.yul\":7049:7055   */\n  dup9\n    /* \"#utility.yul\":7045:7059   */\n  mul\n    /* \"#utility.yul\":7041:7063   */\n  add\n    /* \"#utility.yul\":7035:7039   */\n  dup9\n    /* \"#utility.yul\":7028:7064   */\n  sstore\n    /* \"#utility.yul\":6464:7074   */\n  pop\n  pop\n  pop\n    /* \"#utility.yul\":6427:7313   */\ntag_105:\n  pop\n    /* \"#utility.yul\":6018:7319   */\n  pop\n  pop\n  pop\n    /* \"#utility.yul\":5927:7319   */\n  pop\n  pop\n  jump\t// out\n    /* \"contracts/ExampleStrings.sol\":60:491  contract ExampleStrings {... */\ntag_6:\n  dataSize(sub_0)\n  dup1\n  dataOffset(sub_0)\n  0x00\n  codecopy\n  0x00\n  return\nstop\n\nsub_0: assembly {\n        /* \"contracts/ExampleStrings.sol\":60:491  contract ExampleStrings {... */\n      mstore(0x40, 0x80)\n      callvalue\n      dup1\n      iszero\n      tag_1\n      jumpi\n      0x00\n      dup1\n      revert\n    tag_1:\n      pop\n      jumpi(tag_2, lt(calldatasize, 0x04))\n      shr(0xe0, calldataload(0x00))\n      dup1\n      0x492bfa18\n      eq\n      tag_3\n      jumpi\n      dup1\n      0x5ce25353\n      eq\n      tag_4\n      jumpi\n      dup1\n      0x712f4602\n      eq\n      tag_5\n      jumpi\n      dup1\n      0x82180568\n      eq\n      tag_6\n      jumpi\n    tag_2:\n      0x00\n      dup1\n      revert\n        /* \"contracts/ExampleStrings.sol\":93:131  string public myString = \"Hello World\" */\n    tag_3:\n      tag_7\n      tag_8\n      jump\t// in\n    tag_7:\n      mload(0x40)\n      tag_9\n      swap2\n      swap1\n      tag_10\n      jump\t// in\n    tag_9:\n      mload(0x40)\n      dup1\n      swap2\n      sub\n      swap1\n      return\n        /* \"contracts/ExampleStrings.sol\":285:486  function compareTwoStrings(string memory _myString) public view returns(bool) {... */\n    tag_4:\n      tag_11\n      0x04\n      dup1\n      calldatasize\n      sub\n      dup2\n      add\n      swap1\n      tag_12\n      swap2\n      swap1\n      tag_13\n      jump\t// in\n    tag_12:\n      tag_14\n      jump\t// in\n    tag_11:\n      mload(0x40)\n      tag_15\n      swap2\n      swap1\n      tag_16\n      jump\t// in\n    tag_15:\n      mload(0x40)\n      dup1\n      swap2\n      sub\n      swap1\n      return\n        /* \"contracts/ExampleStrings.sol\":140:176  bytes public myBytes = \"Hello World\" */\n    tag_5:\n      tag_17\n      tag_18\n      jump\t// in\n    tag_17:\n      mload(0x40)\n      tag_19\n      swap2\n      swap1\n      tag_20\n      jump\t// in\n    tag_19:\n      mload(0x40)\n      dup1\n      swap2\n      sub\n      swap1\n      return\n        /* \"contracts/ExampleStrings.sol\":185:277  function setMyString(string memory _myString) public {... */\n    tag_6:\n      tag_21\n      0x04\n      dup1\n      calldatasize\n      sub\n      dup2\n      add\n      swap1\n      tag_22\n      swap2\n      swap1\n      tag_13\n      jump\t// in\n    tag_22:\n      tag_23\n      jump\t// in\n    tag_21:\n      stop\n        /* \"contracts/ExampleStrings.sol\":93:131  string public myString = \"Hello World\" */\n    tag_8:\n      0x00\n      dup1\n      sload\n      tag_24\n      swap1\n      tag_25\n      jump\t// in\n    tag_24:\n      dup1\n      0x1f\n      add\n      0x20\n      dup1\n      swap2\n      div\n      mul\n      0x20\n      add\n      mload(0x40)\n      swap1\n      dup2\n      add\n      0x40\n      mstore\n      dup1\n      swap3\n      swap2\n      swap1\n      dup2\n      dup2\n      mstore\n      0x20\n      add\n      dup3\n      dup1\n      sload\n      tag_26\n      swap1\n      tag_25\n      jump\t// in\n    tag_26:\n      dup1\n      iszero\n      tag_27\n      jumpi\n      dup1\n      0x1f\n      lt\n      tag_28\n      jumpi\n      0x0100\n      dup1\n      dup4\n      sload\n      div\n      mul\n      dup4\n      mstore\n      swap2\n      0x20\n      add\n      swap2\n      jump(tag_27)\n    tag_28:\n      dup3\n      add\n      swap2\n      swap1\n      0x00\n      mstore\n      keccak256(0x00, 0x20)\n      swap1\n    tag_29:\n      dup2\n      sload\n      dup2\n      mstore\n      swap1\n      0x01\n      add\n      swap1\n      0x20\n      add\n      dup1\n      dup4\n      gt\n      tag_29\n      jumpi\n      dup3\n      swap1\n      sub\n      0x1f\n      and\n      dup3\n      add\n      swap2\n    tag_27:\n      pop\n      pop\n      pop\n      pop\n      pop\n      dup2\n      jump\t// out\n        /* \"contracts/ExampleStrings.sol\":285:486  function compareTwoStrings(string memory _myString) public view returns(bool) {... */\n    tag_14:\n        /* \"contracts/ExampleStrings.sol\":357:361  bool */\n      0x00\n        /* \"contracts/ExampleStrings.sol\":437:446  _myString */\n      dup2\n        /* \"contracts/ExampleStrings.sol\":426:447  abi.encode(_myString) */\n      add(0x20, mload(0x40))\n      tag_31\n      swap2\n      swap1\n      tag_10\n      jump\t// in\n    tag_31:\n      mload(0x40)\n      0x20\n      dup2\n      dup4\n      sub\n      sub\n      dup2\n      mstore\n      swap1\n      0x40\n      mstore\n        /* \"contracts/ExampleStrings.sol\":416:448  keccak256(abi.encode(_myString)) */\n      dup1\n      mload\n      swap1\n      0x20\n      add\n      keccak256\n        /* \"contracts/ExampleStrings.sol\":402:410  myString */\n      0x00\n        /* \"contracts/ExampleStrings.sol\":391:411  abi.encode(myString) */\n      add(0x20, mload(0x40))\n      tag_32\n      swap2\n      swap1\n      tag_33\n      jump\t// in\n    tag_32:\n      mload(0x40)\n      0x20\n      dup2\n      dup4\n      sub\n      sub\n      dup2\n      mstore\n      swap1\n      0x40\n      mstore\n        /* \"contracts/ExampleStrings.sol\":381:412  keccak256(abi.encode(myString)) */\n      dup1\n      mload\n      swap1\n      0x20\n      add\n      keccak256\n        /* \"contracts/ExampleStrings.sol\":381:448  keccak256(abi.encode(myString)) == keccak256(abi.encode(_myString)) */\n      eq\n        /* \"contracts/ExampleStrings.sol\":374:448  return keccak256(abi.encode(myString)) == keccak256(abi.encode(_myString)) */\n      swap1\n      pop\n        /* \"contracts/ExampleStrings.sol\":285:486  function compareTwoStrings(string memory _myString) public view returns(bool) {... */\n      swap2\n      swap1\n      pop\n      jump\t// out\n        /* \"contracts/ExampleStrings.sol\":140:176  bytes public myBytes = \"Hello World\" */\n    tag_18:\n      0x01\n      dup1\n      sload\n      tag_34\n      swap1\n      tag_25\n      jump\t// in\n    tag_34:\n      dup1\n      0x1f\n      add\n      0x20\n      dup1\n      swap2\n      div\n      mul\n      0x20\n      add\n      mload(0x40)\n      swap1\n      dup2\n      add\n      0x40\n      mstore\n      dup1\n      swap3\n      swap2\n      swap1\n      dup2\n      dup2\n      mstore\n      0x20\n      add\n      dup3\n      dup1\n      sload\n      tag_35\n      swap1\n      tag_25\n      jump\t// in\n    tag_35:\n      dup1\n      iszero\n      tag_36\n      jumpi\n      dup1\n      0x1f\n      lt\n      tag_37\n      jumpi\n      0x0100\n      dup1\n      dup4\n      sload\n      div\n      mul\n      dup4\n      mstore\n      swap2\n      0x20\n      add\n      swap2\n      jump(tag_36)\n    tag_37:\n      dup3\n      add\n      swap2\n      swap1\n      0x00\n      mstore\n      keccak256(0x00, 0x20)\n      swap1\n    tag_38:\n      dup2\n      sload\n      dup2\n      mstore\n      swap1\n      0x01\n      add\n      swap1\n      0x20\n      add\n      dup1\n      dup4\n      gt\n      tag_38\n      jumpi\n      dup3\n      swap1\n      sub\n      0x1f\n      and\n      dup3\n      add\n      swap2\n    tag_36:\n      pop\n      pop\n      pop\n      pop\n      pop\n      dup2\n      jump\t// out\n        /* \"contracts/ExampleStrings.sol\":185:277  function setMyString(string memory _myString) public {... */\n    tag_23:\n        /* \"contracts/ExampleStrings.sol\":260:269  _myString */\n      dup1\n        /* \"contracts/ExampleStrings.sol\":249:257  myString */\n      0x00\n        /* \"contracts/ExampleStrings.sol\":249:269  myString = _myString */\n      swap1\n      dup2\n      tag_40\n      swap2\n      swap1\n      tag_41\n      jump\t// in\n    tag_40:\n      pop\n        /* \"contracts/ExampleStrings.sol\":185:277  function setMyString(string memory _myString) public {... */\n      pop\n      jump\t// out\n        /* \"#utility.yul\":7:106   */\n    tag_42:\n        /* \"#utility.yul\":59:65   */\n      0x00\n        /* \"#utility.yul\":93:98   */\n      dup2\n        /* \"#utility.yul\":87:99   */\n      mload\n        /* \"#utility.yul\":77:99   */\n      swap1\n      pop\n        /* \"#utility.yul\":7:106   */\n      swap2\n      swap1\n      pop\n      jump\t// out\n        /* \"#utility.yul\":112:281   */\n    tag_43:\n        /* \"#utility.yul\":196:207   */\n      0x00\n        /* \"#utility.yul\":230:236   */\n      dup3\n        /* \"#utility.yul\":225:228   */\n      dup3\n        /* \"#utility.yul\":218:237   */\n      mstore\n        /* \"#utility.yul\":270:274   */\n      0x20\n        /* \"#utility.yul\":265:268   */\n      dup3\n        /* \"#utility.yul\":261:275   */\n      add\n        /* \"#utility.yul\":246:275   */\n      swap1\n      pop\n        /* \"#utility.yul\":112:281   */\n      swap3\n      swap2\n      pop\n      pop\n      jump\t// out\n        /* \"#utility.yul\":287:594   */\n    tag_44:\n        /* \"#utility.yul\":355:356   */\n      0x00\n        /* \"#utility.yul\":365:478   */\n    tag_86:\n        /* \"#utility.yul\":379:385   */\n      dup4\n        /* \"#utility.yul\":376:377   */\n      dup2\n        /* \"#utility.yul\":373:386   */\n      lt\n        /* \"#utility.yul\":365:478   */\n      iszero\n      tag_88\n      jumpi\n        /* \"#utility.yul\":464:465   */\n      dup1\n        /* \"#utility.yul\":459:462   */\n      dup3\n        /* \"#utility.yul\":455:466   */\n      add\n        /* \"#utility.yul\":449:467   */\n      mload\n        /* \"#utility.yul\":445:446   */\n      dup2\n        /* \"#utility.yul\":440:443   */\n      dup5\n        /* \"#utility.yul\":436:447   */\n      add\n        /* \"#utility.yul\":429:468   */\n      mstore\n        /* \"#utility.yul\":401:403   */\n      0x20\n        /* \"#utility.yul\":398:399   */\n      dup2\n        /* \"#utility.yul\":394:404   */\n      add\n        /* \"#utility.yul\":389:404   */\n      swap1\n      pop\n        /* \"#utility.yul\":365:478   */\n      jump(tag_86)\n    tag_88:\n        /* \"#utility.yul\":496:502   */\n      dup4\n        /* \"#utility.yul\":493:494   */\n      dup2\n        /* \"#utility.yul\":490:503   */\n      gt\n        /* \"#utility.yul\":487:588   */\n      iszero\n      tag_89\n      jumpi\n        /* \"#utility.yul\":576:577   */\n      0x00\n        /* \"#utility.yul\":567:573   */\n      dup5\n        /* \"#utility.yul\":562:565   */\n      dup5\n        /* \"#utility.yul\":558:574   */\n      add\n        /* \"#utility.yul\":551:578   */\n      mstore\n        /* \"#utility.yul\":487:588   */\n    tag_89:\n        /* \"#utility.yul\":336:594   */\n      pop\n        /* \"#utility.yul\":287:594   */\n      pop\n      pop\n      pop\n      jump\t// out\n        /* \"#utility.yul\":600:702   */\n    tag_45:\n        /* \"#utility.yul\":641:647   */\n      0x00\n        /* \"#utility.yul\":692:694   */\n      0x1f\n        /* \"#utility.yul\":688:695   */\n      not\n        /* \"#utility.yul\":683:685   */\n      0x1f\n        /* \"#utility.yul\":676:681   */\n      dup4\n        /* \"#utility.yul\":672:686   */\n      add\n        /* \"#utility.yul\":668:696   */\n      and\n        /* \"#utility.yul\":658:696   */\n      swap1\n      pop\n        /* \"#utility.yul\":600:702   */\n      swap2\n      swap1\n      pop\n      jump\t// out\n        /* \"#utility.yul\":708:1072   */\n    tag_46:\n        /* \"#utility.yul\":796:799   */\n      0x00\n        /* \"#utility.yul\":824:863   */\n      tag_92\n        /* \"#utility.yul\":857:862   */\n      dup3\n        /* \"#utility.yul\":824:863   */\n      tag_42\n      jump\t// in\n    tag_92:\n        /* \"#utility.yul\":879:950   */\n      tag_93\n        /* \"#utility.yul\":943:949   */\n      dup2\n        /* \"#utility.yul\":938:941   */\n      dup6\n        /* \"#utility.yul\":879:950   */\n      tag_43\n      jump\t// in\n    tag_93:\n        /* \"#utility.yul\":872:950   */\n      swap4\n      pop\n        /* \"#utility.yul\":959:1011   */\n      tag_94\n        /* \"#utility.yul\":1004:1010   */\n      dup2\n        /* \"#utility.yul\":999:1002   */\n      dup6\n        /* \"#utility.yul\":992:996   */\n      0x20\n        /* \"#utility.yul\":985:990   */\n      dup7\n        /* \"#utility.yul\":981:997   */\n      add\n        /* \"#utility.yul\":959:1011   */\n      tag_44\n      jump\t// in\n    tag_94:\n        /* \"#utility.yul\":1036:1065   */\n      tag_95\n        /* \"#utility.yul\":1058:1064   */\n      dup2\n        /* \"#utility.yul\":1036:1065   */\n      tag_45\n      jump\t// in\n    tag_95:\n        /* \"#utility.yul\":1031:1034   */\n      dup5\n        /* \"#utility.yul\":1027:1066   */\n      add\n        /* \"#utility.yul\":1020:1066   */\n      swap2\n      pop\n        /* \"#utility.yul\":800:1072   */\n      pop\n        /* \"#utility.yul\":708:1072   */\n      swap3\n      swap2\n      pop\n      pop\n      jump\t// out\n        /* \"#utility.yul\":1078:1391   */\n    tag_10:\n        /* \"#utility.yul\":1191:1195   */\n      0x00\n        /* \"#utility.yul\":1229:1231   */\n      0x20\n        /* \"#utility.yul\":1218:1227   */\n      dup3\n        /* \"#utility.yul\":1214:1232   */\n      add\n        /* \"#utility.yul\":1206:1232   */\n      swap1\n      pop\n        /* \"#utility.yul\":1278:1287   */\n      dup2\n        /* \"#utility.yul\":1272:1276   */\n      dup2\n        /* \"#utility.yul\":1268:1288   */\n      sub\n        /* \"#utility.yul\":1264:1265   */\n      0x00\n        /* \"#utility.yul\":1253:1262   */\n      dup4\n        /* \"#utility.yul\":1249:1266   */\n      add\n        /* \"#utility.yul\":1242:1289   */\n      mstore\n        /* \"#utility.yul\":1306:1384   */\n      tag_97\n        /* \"#utility.yul\":1379:1383   */\n      dup2\n        /* \"#utility.yul\":1370:1376   */\n      dup5\n        /* \"#utility.yul\":1306:1384   */\n      tag_46\n      jump\t// in\n    tag_97:\n        /* \"#utility.yul\":1298:1384   */\n      swap1\n      pop\n        /* \"#utility.yul\":1078:1391   */\n      swap3\n      swap2\n      pop\n      pop\n      jump\t// out\n        /* \"#utility.yul\":1397:1472   */\n    tag_47:\n        /* \"#utility.yul\":1430:1436   */\n      0x00\n        /* \"#utility.yul\":1463:1465   */\n      0x40\n        /* \"#utility.yul\":1457:1466   */\n      mload\n        /* \"#utility.yul\":1447:1466   */\n      swap1\n      pop\n        /* \"#utility.yul\":1397:1472   */\n      swap1\n      jump\t// out\n        /* \"#utility.yul\":1478:1595   */\n    tag_48:\n        /* \"#utility.yul\":1587:1588   */\n      0x00\n        /* \"#utility.yul\":1584:1585   */\n      dup1\n        /* \"#utility.yul\":1577:1589   */\n      revert\n        /* \"#utility.yul\":1601:1718   */\n    tag_49:\n        /* \"#utility.yul\":1710:1711   */\n      0x00\n        /* \"#utility.yul\":1707:1708   */\n      dup1\n        /* \"#utility.yul\":1700:1712   */\n      revert\n        /* \"#utility.yul\":1724:1841   */\n    tag_50:\n        /* \"#utility.yul\":1833:1834   */\n      0x00\n        /* \"#utility.yul\":1830:1831   */\n      dup1\n        /* \"#utility.yul\":1823:1835   */\n      revert\n        /* \"#utility.yul\":1847:1964   */\n    tag_51:\n        /* \"#utility.yul\":1956:1957   */\n      0x00\n        /* \"#utility.yul\":1953:1954   */\n      dup1\n        /* \"#utility.yul\":1946:1958   */\n      revert\n        /* \"#utility.yul\":1970:2150   */\n    tag_52:\n        /* \"#utility.yul\":2018:2095   */\n      0x4e487b7100000000000000000000000000000000000000000000000000000000\n        /* \"#utility.yul\":2015:2016   */\n      0x00\n        /* \"#utility.yul\":2008:2096   */\n      mstore\n        /* \"#utility.yul\":2115:2119   */\n      0x41\n        /* \"#utility.yul\":2112:2113   */\n      0x04\n        /* \"#utility.yul\":2105:2120   */\n      mstore\n        /* \"#utility.yul\":2139:2143   */\n      0x24\n        /* \"#utility.yul\":2136:2137   */\n      0x00\n        /* \"#utility.yul\":2129:2144   */\n      revert\n        /* \"#utility.yul\":2156:2437   */\n    tag_53:\n        /* \"#utility.yul\":2239:2266   */\n      tag_105\n        /* \"#utility.yul\":2261:2265   */\n      dup3\n        /* \"#utility.yul\":2239:2266   */\n      tag_45\n      jump\t// in\n    tag_105:\n        /* \"#utility.yul\":2231:2237   */\n      dup2\n        /* \"#utility.yul\":2227:2267   */\n      add\n        /* \"#utility.yul\":2369:2375   */\n      dup2\n        /* \"#utility.yul\":2357:2367   */\n      dup2\n        /* \"#utility.yul\":2354:2376   */\n      lt\n        /* \"#utility.yul\":2333:2351   */\n      0xffffffffffffffff\n        /* \"#utility.yul\":2321:2331   */\n      dup3\n        /* \"#utility.yul\":2318:2352   */\n      gt\n        /* \"#utility.yul\":2315:2377   */\n      or\n        /* \"#utility.yul\":2312:2400   */\n      iszero\n      tag_106\n      jumpi\n        /* \"#utility.yul\":2380:2398   */\n      tag_107\n      tag_52\n      jump\t// in\n    tag_107:\n        /* \"#utility.yul\":2312:2400   */\n    tag_106:\n        /* \"#utility.yul\":2420:2430   */\n      dup1\n        /* \"#utility.yul\":2416:2418   */\n      0x40\n        /* \"#utility.yul\":2409:2431   */\n      mstore\n        /* \"#utility.yul\":2199:2437   */\n      pop\n        /* \"#utility.yul\":2156:2437   */\n      pop\n      pop\n      jump\t// out\n        /* \"#utility.yul\":2443:2572   */\n    tag_54:\n        /* \"#utility.yul\":2477:2483   */\n      0x00\n        /* \"#utility.yul\":2504:2524   */\n      tag_109\n      tag_47\n      jump\t// in\n    tag_109:\n        /* \"#utility.yul\":2494:2524   */\n      swap1\n      pop\n        /* \"#utility.yul\":2533:2566   */\n      tag_110\n        /* \"#utility.yul\":2561:2565   */\n      dup3\n        /* \"#utility.yul\":2553:2559   */\n      dup3\n        /* \"#utility.yul\":2533:2566   */\n      tag_53\n      jump\t// in\n    tag_110:\n        /* \"#utility.yul\":2443:2572   */\n      swap2\n      swap1\n      pop\n      jump\t// out\n        /* \"#utility.yul\":2578:2886   */\n    tag_55:\n        /* \"#utility.yul\":2640:2644   */\n      0x00\n        /* \"#utility.yul\":2730:2748   */\n      0xffffffffffffffff\n        /* \"#utility.yul\":2722:2728   */\n      dup3\n        /* \"#utility.yul\":2719:2749   */\n      gt\n        /* \"#utility.yul\":2716:2772   */\n      iszero\n      tag_112\n      jumpi\n        /* \"#utility.yul\":2752:2770   */\n      tag_113\n      tag_52\n      jump\t// in\n    tag_113:\n        /* \"#utility.yul\":2716:2772   */\n    tag_112:\n        /* \"#utility.yul\":2790:2819   */\n      tag_114\n        /* \"#utility.yul\":2812:2818   */\n      dup3\n        /* \"#utility.yul\":2790:2819   */\n      tag_45\n      jump\t// in\n    tag_114:\n        /* \"#utility.yul\":2782:2819   */\n      swap1\n      pop\n        /* \"#utility.yul\":2874:2878   */\n      0x20\n        /* \"#utility.yul\":2868:2872   */\n      dup2\n        /* \"#utility.yul\":2864:2879   */\n      add\n        /* \"#utility.yul\":2856:2879   */\n      swap1\n      pop\n        /* \"#utility.yul\":2578:2886   */\n      swap2\n      swap1\n      pop\n      jump\t// out\n        /* \"#utility.yul\":2892:3046   */\n    tag_56:\n        /* \"#utility.yul\":2976:2982   */\n      dup3\n        /* \"#utility.yul\":2971:2974   */\n      dup2\n        /* \"#utility.yul\":2966:2969   */\n      dup4\n        /* \"#utility.yul\":2953:2983   */\n      calldatacopy\n        /* \"#utility.yul\":3038:3039   */\n      0x00\n        /* \"#utility.yul\":3029:3035   */\n      dup4\n        /* \"#utility.yul\":3024:3027   */\n      dup4\n        /* \"#utility.yul\":3020:3036   */\n      add\n        /* \"#utility.yul\":3013:3040   */\n      mstore\n        /* \"#utility.yul\":2892:3046   */\n      pop\n      pop\n      pop\n      jump\t// out\n        /* \"#utility.yul\":3052:3464   */\n    tag_57:\n        /* \"#utility.yul\":3130:3135   */\n      0x00\n        /* \"#utility.yul\":3155:3221   */\n      tag_117\n        /* \"#utility.yul\":3171:3220   */\n      tag_118\n        /* \"#utility.yul\":3213:3219   */\n      dup5\n        /* \"#utility.yul\":3171:3220   */\n      tag_55\n      jump\t// in\n    tag_118:\n        /* \"#utility.yul\":3155:3221   */\n      tag_54\n      jump\t// in\n    tag_117:\n        /* \"#utility.yul\":3146:3221   */\n      swap1\n      pop\n        /* \"#utility.yul\":3244:3250   */\n      dup3\n        /* \"#utility.yul\":3237:3242   */\n      dup2\n        /* \"#utility.yul\":3230:3251   */\n      mstore\n        /* \"#utility.yul\":3282:3286   */\n      0x20\n        /* \"#utility.yul\":3275:3280   */\n      dup2\n        /* \"#utility.yul\":3271:3287   */\n      add\n        /* \"#utility.yul\":3320:3323   */\n      dup5\n        /* \"#utility.yul\":3311:3317   */\n      dup5\n        /* \"#utility.yul\":3306:3309   */\n      dup5\n        /* \"#utility.yul\":3302:3318   */\n      add\n        /* \"#utility.yul\":3299:3324   */\n      gt\n        /* \"#utility.yul\":3296:3408   */\n      iszero\n      tag_119\n      jumpi\n        /* \"#utility.yul\":3327:3406   */\n      tag_120\n      tag_51\n      jump\t// in\n    tag_120:\n        /* \"#utility.yul\":3296:3408   */\n    tag_119:\n        /* \"#utility.yul\":3417:3458   */\n      tag_121\n        /* \"#utility.yul\":3451:3457   */\n      dup5\n        /* \"#utility.yul\":3446:3449   */\n      dup3\n        /* \"#utility.yul\":3441:3444   */\n      dup6\n        /* \"#utility.yul\":3417:3458   */\n      tag_56\n      jump\t// in\n    tag_121:\n        /* \"#utility.yul\":3136:3464   */\n      pop\n        /* \"#utility.yul\":3052:3464   */\n      swap4\n      swap3\n      pop\n      pop\n      pop\n      jump\t// out\n        /* \"#utility.yul\":3484:3824   */\n    tag_58:\n        /* \"#utility.yul\":3540:3545   */\n      0x00\n        /* \"#utility.yul\":3589:3592   */\n      dup3\n        /* \"#utility.yul\":3582:3586   */\n      0x1f\n        /* \"#utility.yul\":3574:3580   */\n      dup4\n        /* \"#utility.yul\":3570:3587   */\n      add\n        /* \"#utility.yul\":3566:3593   */\n      slt\n        /* \"#utility.yul\":3556:3678   */\n      tag_123\n      jumpi\n        /* \"#utility.yul\":3597:3676   */\n      tag_124\n      tag_50\n      jump\t// in\n    tag_124:\n        /* \"#utility.yul\":3556:3678   */\n    tag_123:\n        /* \"#utility.yul\":3714:3720   */\n      dup2\n        /* \"#utility.yul\":3701:3721   */\n      calldataload\n        /* \"#utility.yul\":3739:3818   */\n      tag_125\n        /* \"#utility.yul\":3814:3817   */\n      dup5\n        /* \"#utility.yul\":3806:3812   */\n      dup3\n        /* \"#utility.yul\":3799:3803   */\n      0x20\n        /* \"#utility.yul\":3791:3797   */\n      dup7\n        /* \"#utility.yul\":3787:3804   */\n      add\n        /* \"#utility.yul\":3739:3818   */\n      tag_57\n      jump\t// in\n    tag_125:\n        /* \"#utility.yul\":3730:3818   */\n      swap2\n      pop\n        /* \"#utility.yul\":3546:3824   */\n      pop\n        /* \"#utility.yul\":3484:3824   */\n      swap3\n      swap2\n      pop\n      pop\n      jump\t// out\n        /* \"#utility.yul\":3830:4339   */\n    tag_13:\n        /* \"#utility.yul\":3899:3905   */\n      0x00\n        /* \"#utility.yul\":3948:3950   */\n      0x20\n        /* \"#utility.yul\":3936:3945   */\n      dup3\n        /* \"#utility.yul\":3927:3934   */\n      dup5\n        /* \"#utility.yul\":3923:3946   */\n      sub\n        /* \"#utility.yul\":3919:3951   */\n      slt\n        /* \"#utility.yul\":3916:4035   */\n      iszero\n      tag_127\n      jumpi\n        /* \"#utility.yul\":3954:4033   */\n      tag_128\n      tag_48\n      jump\t// in\n    tag_128:\n        /* \"#utility.yul\":3916:4035   */\n    tag_127:\n        /* \"#utility.yul\":4102:4103   */\n      0x00\n        /* \"#utility.yul\":4091:4100   */\n      dup3\n        /* \"#utility.yul\":4087:4104   */\n      add\n        /* \"#utility.yul\":4074:4105   */\n      calldataload\n        /* \"#utility.yul\":4132:4150   */\n      0xffffffffffffffff\n        /* \"#utility.yul\":4124:4130   */\n      dup2\n        /* \"#utility.yul\":4121:4151   */\n      gt\n        /* \"#utility.yul\":4118:4235   */\n      iszero\n      tag_129\n      jumpi\n        /* \"#utility.yul\":4154:4233   */\n      tag_130\n      tag_49\n      jump\t// in\n    tag_130:\n        /* \"#utility.yul\":4118:4235   */\n    tag_129:\n        /* \"#utility.yul\":4259:4322   */\n      tag_131\n        /* \"#utility.yul\":4314:4321   */\n      dup5\n        /* \"#utility.yul\":4305:4311   */\n      dup3\n        /* \"#utility.yul\":4294:4303   */\n      dup6\n        /* \"#utility.yul\":4290:4312   */\n      add\n        /* \"#utility.yul\":4259:4322   */\n      tag_58\n      jump\t// in\n    tag_131:\n        /* \"#utility.yul\":4249:4322   */\n      swap2\n      pop\n        /* \"#utility.yul\":4045:4332   */\n      pop\n        /* \"#utility.yul\":3830:4339   */\n      swap3\n      swap2\n      pop\n      pop\n      jump\t// out\n        /* \"#utility.yul\":4345:4435   */\n    tag_59:\n        /* \"#utility.yul\":4379:4386   */\n      0x00\n        /* \"#utility.yul\":4422:4427   */\n      dup2\n        /* \"#utility.yul\":4415:4428   */\n      iszero\n        /* \"#utility.yul\":4408:4429   */\n      iszero\n        /* \"#utility.yul\":4397:4429   */\n      swap1\n      pop\n        /* \"#utility.yul\":4345:4435   */\n      swap2\n      swap1\n      pop\n      jump\t// out\n        /* \"#utility.yul\":4441:4550   */\n    tag_60:\n        /* \"#utility.yul\":4522:4543   */\n      tag_134\n        /* \"#utility.yul\":4537:4542   */\n      dup2\n        /* \"#utility.yul\":4522:4543   */\n      tag_59\n      jump\t// in\n    tag_134:\n        /* \"#utility.yul\":4517:4520   */\n      dup3\n        /* \"#utility.yul\":4510:4544   */\n      mstore\n        /* \"#utility.yul\":4441:4550   */\n      pop\n      pop\n      jump\t// out\n        /* \"#utility.yul\":4556:4766   */\n    tag_16:\n        /* \"#utility.yul\":4643:4647   */\n      0x00\n        /* \"#utility.yul\":4681:4683   */\n      0x20\n        /* \"#utility.yul\":4670:4679   */\n      dup3\n        /* \"#utility.yul\":4666:4684   */\n      add\n        /* \"#utility.yul\":4658:4684   */\n      swap1\n      pop\n        /* \"#utility.yul\":4694:4759   */\n      tag_136\n        /* \"#utility.yul\":4756:4757   */\n      0x00\n        /* \"#utility.yul\":4745:4754   */\n      dup4\n        /* \"#utility.yul\":4741:4758   */\n      add\n        /* \"#utility.yul\":4732:4738   */\n      dup5\n        /* \"#utility.yul\":4694:4759   */\n      tag_60\n      jump\t// in\n    tag_136:\n        /* \"#utility.yul\":4556:4766   */\n      swap3\n      swap2\n      pop\n      pop\n      jump\t// out\n        /* \"#utility.yul\":4772:4870   */\n    tag_61:\n        /* \"#utility.yul\":4823:4829   */\n      0x00\n        /* \"#utility.yul\":4857:4862   */\n      dup2\n        /* \"#utility.yul\":4851:4863   */\n      mload\n        /* \"#utility.yul\":4841:4863   */\n      swap1\n      pop\n        /* \"#utility.yul\":4772:4870   */\n      swap2\n      swap1\n      pop\n      jump\t// out\n        /* \"#utility.yul\":4876:5044   */\n    tag_62:\n        /* \"#utility.yul\":4959:4970   */\n      0x00\n        /* \"#utility.yul\":4993:4999   */\n      dup3\n        /* \"#utility.yul\":4988:4991   */\n      dup3\n        /* \"#utility.yul\":4981:5000   */\n      mstore\n        /* \"#utility.yul\":5033:5037   */\n      0x20\n        /* \"#utility.yul\":5028:5031   */\n      dup3\n        /* \"#utility.yul\":5024:5038   */\n      add\n        /* \"#utility.yul\":5009:5038   */\n      swap1\n      pop\n        /* \"#utility.yul\":4876:5044   */\n      swap3\n      swap2\n      pop\n      pop\n      jump\t// out\n        /* \"#utility.yul\":5050:5410   */\n    tag_63:\n        /* \"#utility.yul\":5136:5139   */\n      0x00\n        /* \"#utility.yul\":5164:5202   */\n      tag_140\n        /* \"#utility.yul\":5196:5201   */\n      dup3\n        /* \"#utility.yul\":5164:5202   */\n      tag_61\n      jump\t// in\n    tag_140:\n        /* \"#utility.yul\":5218:5288   */\n      tag_141\n        /* \"#utility.yul\":5281:5287   */\n      dup2\n        /* \"#utility.yul\":5276:5279   */\n      dup6\n        /* \"#utility.yul\":5218:5288   */\n      tag_62\n      jump\t// in\n    tag_141:\n        /* \"#utility.yul\":5211:5288   */\n      swap4\n      pop\n        /* \"#utility.yul\":5297:5349   */\n      tag_142\n        /* \"#utility.yul\":5342:5348   */\n      dup2\n        /* \"#utility.yul\":5337:5340   */\n      dup6\n        /* \"#utility.yul\":5330:5334   */\n      0x20\n        /* \"#utility.yul\":5323:5328   */\n      dup7\n        /* \"#utility.yul\":5319:5335   */\n      add\n        /* \"#utility.yul\":5297:5349   */\n      tag_44\n      jump\t// in\n    tag_142:\n        /* \"#utility.yul\":5374:5403   */\n      tag_143\n        /* \"#utility.yul\":5396:5402   */\n      dup2\n        /* \"#utility.yul\":5374:5403   */\n      tag_45\n      jump\t// in\n    tag_143:\n        /* \"#utility.yul\":5369:5372   */\n      dup5\n        /* \"#utility.yul\":5365:5404   */\n      add\n        /* \"#utility.yul\":5358:5404   */\n      swap2\n      pop\n        /* \"#utility.yul\":5140:5410   */\n      pop\n        /* \"#utility.yul\":5050:5410   */\n      swap3\n      swap2\n      pop\n      pop\n      jump\t// out\n        /* \"#utility.yul\":5416:5725   */\n    tag_20:\n        /* \"#utility.yul\":5527:5531   */\n      0x00\n        /* \"#utility.yul\":5565:5567   */\n      0x20\n        /* \"#utility.yul\":5554:5563   */\n      dup3\n        /* \"#utility.yul\":5550:5568   */\n      add\n        /* \"#utility.yul\":5542:5568   */\n      swap1\n      pop\n        /* \"#utility.yul\":5614:5623   */\n      dup2\n        /* \"#utility.yul\":5608:5612   */\n      dup2\n        /* \"#utility.yul\":5604:5624   */\n      sub\n        /* \"#utility.yul\":5600:5601   */\n      0x00\n        /* \"#utility.yul\":5589:5598   */\n      dup4\n        /* \"#utility.yul\":5585:5602   */\n      add\n        /* \"#utility.yul\":5578:5625   */\n      mstore\n        /* \"#utility.yul\":5642:5718   */\n      tag_145\n        /* \"#utility.yul\":5713:5717   */\n      dup2\n        /* \"#utility.yul\":5704:5710   */\n      dup5\n        /* \"#utility.yul\":5642:5718   */\n      tag_63\n      jump\t// in\n    tag_145:\n        /* \"#utility.yul\":5634:5718   */\n      swap1\n      pop\n        /* \"#utility.yul\":5416:5725   */\n      swap3\n      swap2\n      pop\n      pop\n      jump\t// out\n        /* \"#utility.yul\":5731:5911   */\n    tag_64:\n        /* \"#utility.yul\":5779:5856   */\n      0x4e487b7100000000000000000000000000000000000000000000000000000000\n        /* \"#utility.yul\":5776:5777   */\n      0x00\n        /* \"#utility.yul\":5769:5857   */\n      mstore\n        /* \"#utility.yul\":5876:5880   */\n      0x22\n        /* \"#utility.yul\":5873:5874   */\n      0x04\n        /* \"#utility.yul\":5866:5881   */\n      mstore\n        /* \"#utility.yul\":5900:5904   */\n      0x24\n        /* \"#utility.yul\":5897:5898   */\n      0x00\n        /* \"#utility.yul\":5890:5905   */\n      revert\n        /* \"#utility.yul\":5917:6237   */\n    tag_25:\n        /* \"#utility.yul\":5961:5967   */\n      0x00\n        /* \"#utility.yul\":5998:5999   */\n      0x02\n        /* \"#utility.yul\":5992:5996   */\n      dup3\n        /* \"#utility.yul\":5988:6000   */\n      div\n        /* \"#utility.yul\":5978:6000   */\n      swap1\n      pop\n        /* \"#utility.yul\":6045:6046   */\n      0x01\n        /* \"#utility.yul\":6039:6043   */\n      dup3\n        /* \"#utility.yul\":6035:6047   */\n      and\n        /* \"#utility.yul\":6066:6084   */\n      dup1\n        /* \"#utility.yul\":6056:6137   */\n      tag_148\n      jumpi\n        /* \"#utility.yul\":6122:6126   */\n      0x7f\n        /* \"#utility.yul\":6114:6120   */\n      dup3\n        /* \"#utility.yul\":6110:6127   */\n      and\n        /* \"#utility.yul\":6100:6127   */\n      swap2\n      pop\n        /* \"#utility.yul\":6056:6137   */\n    tag_148:\n        /* \"#utility.yul\":6184:6186   */\n      0x20\n        /* \"#utility.yul\":6176:6182   */\n      dup3\n        /* \"#utility.yul\":6173:6187   */\n      lt\n        /* \"#utility.yul\":6153:6171   */\n      dup2\n        /* \"#utility.yul\":6150:6188   */\n      sub\n        /* \"#utility.yul\":6147:6231   */\n      tag_149\n      jumpi\n        /* \"#utility.yul\":6203:6221   */\n      tag_150\n      tag_64\n      jump\t// in\n    tag_150:\n        /* \"#utility.yul\":6147:6231   */\n    tag_149:\n        /* \"#utility.yul\":5968:6237   */\n      pop\n        /* \"#utility.yul\":5917:6237   */\n      swap2\n      swap1\n      pop\n      jump\t// out\n        /* \"#utility.yul\":6243:6384   */\n    tag_65:\n        /* \"#utility.yul\":6292:6296   */\n      0x00\n        /* \"#utility.yul\":6315:6318   */\n      dup2\n        /* \"#utility.yul\":6307:6318   */\n      swap1\n      pop\n        /* \"#utility.yul\":6338:6341   */\n      dup2\n        /* \"#utility.yul\":6335:6336   */\n      0x00\n        /* \"#utility.yul\":6328:6342   */\n      mstore\n        /* \"#utility.yul\":6372:6376   */\n      0x20\n        /* \"#utility.yul\":6369:6370   */\n      0x00\n        /* \"#utility.yul\":6359:6377   */\n      keccak256\n        /* \"#utility.yul\":6351:6377   */\n      swap1\n      pop\n        /* \"#utility.yul\":6243:6384   */\n      swap2\n      swap1\n      pop\n      jump\t// out\n        /* \"#utility.yul\":6414:7245   */\n    tag_66:\n        /* \"#utility.yul\":6499:6502   */\n      0x00\n        /* \"#utility.yul\":6536:6541   */\n      dup2\n        /* \"#utility.yul\":6530:6542   */\n      sload\n        /* \"#utility.yul\":6565:6601   */\n      tag_153\n        /* \"#utility.yul\":6591:6600   */\n      dup2\n        /* \"#utility.yul\":6565:6601   */\n      tag_25\n      jump\t// in\n    tag_153:\n        /* \"#utility.yul\":6617:6688   */\n      tag_154\n        /* \"#utility.yul\":6681:6687   */\n      dup2\n        /* \"#utility.yul\":6676:6679   */\n      dup7\n        /* \"#utility.yul\":6617:6688   */\n      tag_43\n      jump\t// in\n    tag_154:\n        /* \"#utility.yul\":6610:6688   */\n      swap5\n      pop\n        /* \"#utility.yul\":6719:6720   */\n      0x01\n        /* \"#utility.yul\":6708:6717   */\n      dup3\n        /* \"#utility.yul\":6704:6721   */\n      and\n        /* \"#utility.yul\":6735:6736   */\n      0x00\n        /* \"#utility.yul\":6730:6894   */\n      dup2\n      eq\n      tag_156\n      jumpi\n        /* \"#utility.yul\":6908:6909   */\n      0x01\n        /* \"#utility.yul\":6903:7239   */\n      dup2\n      eq\n      tag_157\n      jumpi\n        /* \"#utility.yul\":6697:7239   */\n      jump(tag_155)\n        /* \"#utility.yul\":6730:6894   */\n    tag_156:\n        /* \"#utility.yul\":6814:6818   */\n      0xff\n        /* \"#utility.yul\":6810:6819   */\n      not\n        /* \"#utility.yul\":6799:6808   */\n      dup4\n        /* \"#utility.yul\":6795:6820   */\n      and\n        /* \"#utility.yul\":6790:6793   */\n      dup7\n        /* \"#utility.yul\":6783:6821   */\n      mstore\n        /* \"#utility.yul\":6874:6880   */\n      dup2\n        /* \"#utility.yul\":6867:6881   */\n      iszero\n        /* \"#utility.yul\":6860:6882   */\n      iszero\n        /* \"#utility.yul\":6854:6858   */\n      0x20\n        /* \"#utility.yul\":6850:6883   */\n      mul\n        /* \"#utility.yul\":6845:6848   */\n      dup7\n        /* \"#utility.yul\":6841:6884   */\n      add\n        /* \"#utility.yul\":6834:6884   */\n      swap4\n      pop\n        /* \"#utility.yul\":6730:6894   */\n      jump(tag_155)\n        /* \"#utility.yul\":6903:7239   */\n    tag_157:\n        /* \"#utility.yul\":6970:7008   */\n      tag_158\n        /* \"#utility.yul\":7002:7007   */\n      dup6\n        /* \"#utility.yul\":6970:7008   */\n      tag_65\n      jump\t// in\n    tag_158:\n        /* \"#utility.yul\":7030:7031   */\n      0x00\n        /* \"#utility.yul\":7044:7198   */\n    tag_159:\n        /* \"#utility.yul\":7058:7064   */\n      dup4\n        /* \"#utility.yul\":7055:7056   */\n      dup2\n        /* \"#utility.yul\":7052:7065   */\n      lt\n        /* \"#utility.yul\":7044:7198   */\n      iszero\n      tag_161\n      jumpi\n        /* \"#utility.yul\":7132:7139   */\n      dup2\n        /* \"#utility.yul\":7126:7140   */\n      sload\n        /* \"#utility.yul\":7122:7123   */\n      dup2\n        /* \"#utility.yul\":7117:7120   */\n      dup10\n        /* \"#utility.yul\":7113:7124   */\n      add\n        /* \"#utility.yul\":7106:7141   */\n      mstore\n        /* \"#utility.yul\":7182:7183   */\n      0x01\n        /* \"#utility.yul\":7173:7180   */\n      dup3\n        /* \"#utility.yul\":7169:7184   */\n      add\n        /* \"#utility.yul\":7158:7184   */\n      swap2\n      pop\n        /* \"#utility.yul\":7080:7084   */\n      0x20\n        /* \"#utility.yul\":7077:7078   */\n      dup2\n        /* \"#utility.yul\":7073:7085   */\n      add\n        /* \"#utility.yul\":7068:7085   */\n      swap1\n      pop\n        /* \"#utility.yul\":7044:7198   */\n      jump(tag_159)\n    tag_161:\n        /* \"#utility.yul\":7227:7228   */\n      dup1\n        /* \"#utility.yul\":7222:7225   */\n      dup9\n        /* \"#utility.yul\":7218:7229   */\n      add\n        /* \"#utility.yul\":7211:7229   */\n      swap6\n      pop\n        /* \"#utility.yul\":6910:7239   */\n      pop\n      pop\n        /* \"#utility.yul\":6697:7239   */\n    tag_155:\n      pop\n        /* \"#utility.yul\":6503:7245   */\n      pop\n      pop\n        /* \"#utility.yul\":6414:7245   */\n      swap3\n      swap2\n      pop\n      pop\n      jump\t// out\n        /* \"#utility.yul\":7251:7558   */\n    tag_33:\n        /* \"#utility.yul\":7361:7365   */\n      0x00\n        /* \"#utility.yul\":7399:7401   */\n      0x20\n        /* \"#utility.yul\":7388:7397   */\n      dup3\n        /* \"#utility.yul\":7384:7402   */\n      add\n        /* \"#utility.yul\":7376:7402   */\n      swap1\n      pop\n        /* \"#utility.yul\":7448:7457   */\n      dup2\n        /* \"#utility.yul\":7442:7446   */\n      dup2\n        /* \"#utility.yul\":7438:7458   */\n      sub\n        /* \"#utility.yul\":7434:7435   */\n      0x00\n        /* \"#utility.yul\":7423:7432   */\n      dup4\n        /* \"#utility.yul\":7419:7436   */\n      add\n        /* \"#utility.yul\":7412:7459   */\n      mstore\n        /* \"#utility.yul\":7476:7551   */\n      tag_163\n        /* \"#utility.yul\":7546:7550   */\n      dup2\n        /* \"#utility.yul\":7537:7543   */\n      dup5\n        /* \"#utility.yul\":7476:7551   */\n      tag_66\n      jump\t// in\n    tag_163:\n        /* \"#utility.yul\":7468:7551   */\n      swap1\n      pop\n        /* \"#utility.yul\":7251:7558   */\n      swap3\n      swap2\n      pop\n      pop\n      jump\t// out\n        /* \"#utility.yul\":7564:7657   */\n    tag_67:\n        /* \"#utility.yul\":7601:7607   */\n      0x00\n        /* \"#utility.yul\":7648:7650   */\n      0x20\n        /* \"#utility.yul\":7643:7645   */\n      0x1f\n        /* \"#utility.yul\":7636:7641   */\n      dup4\n        /* \"#utility.yul\":7632:7646   */\n      add\n        /* \"#utility.yul\":7628:7651   */\n      div\n        /* \"#utility.yul\":7618:7651   */\n      swap1\n      pop\n        /* \"#utility.yul\":7564:7657   */\n      swap2\n      swap1\n      pop\n      jump\t// out\n        /* \"#utility.yul\":7663:7770   */\n    tag_68:\n        /* \"#utility.yul\":7707:7715   */\n      0x00\n        /* \"#utility.yul\":7757:7762   */\n      dup3\n        /* \"#utility.yul\":7751:7755   */\n      dup3\n        /* \"#utility.yul\":7747:7763   */\n      shl\n        /* \"#utility.yul\":7726:7763   */\n      swap1\n      pop\n        /* \"#utility.yul\":7663:7770   */\n      swap3\n      swap2\n      pop\n      pop\n      jump\t// out\n        /* \"#utility.yul\":7776:8169   */\n    tag_69:\n        /* \"#utility.yul\":7845:7851   */\n      0x00\n        /* \"#utility.yul\":7895:7896   */\n      0x08\n        /* \"#utility.yul\":7883:7893   */\n      dup4\n        /* \"#utility.yul\":7879:7897   */\n      mul\n        /* \"#utility.yul\":7918:8015   */\n      tag_167\n        /* \"#utility.yul\":7948:8014   */\n      0xffffffffffffffffffffffffffffffffffffffffffffffffffffffffffffffff\n        /* \"#utility.yul\":7937:7946   */\n      dup3\n        /* \"#utility.yul\":7918:8015   */\n      tag_68\n      jump\t// in\n    tag_167:\n        /* \"#utility.yul\":8036:8075   */\n      tag_168\n        /* \"#utility.yul\":8066:8074   */\n      dup7\n        /* \"#utility.yul\":8055:8064   */\n      dup4\n        /* \"#utility.yul\":8036:8075   */\n      tag_68\n      jump\t// in\n    tag_168:\n        /* \"#utility.yul\":8024:8075   */\n      swap6\n      pop\n        /* \"#utility.yul\":8108:8112   */\n      dup1\n        /* \"#utility.yul\":8104:8113   */\n      not\n        /* \"#utility.yul\":8097:8102   */\n      dup5\n        /* \"#utility.yul\":8093:8114   */\n      and\n        /* \"#utility.yul\":8084:8114   */\n      swap4\n      pop\n        /* \"#utility.yul\":8157:8161   */\n      dup1\n        /* \"#utility.yul\":8147:8155   */\n      dup7\n        /* \"#utility.yul\":8143:8162   */\n      and\n        /* \"#utility.yul\":8136:8141   */\n      dup5\n        /* \"#utility.yul\":8133:8163   */\n      or\n        /* \"#utility.yul\":8123:8163   */\n      swap3\n      pop\n        /* \"#utility.yul\":7852:8169   */\n      pop\n      pop\n        /* \"#utility.yul\":7776:8169   */\n      swap4\n      swap3\n      pop\n      pop\n      pop\n      jump\t// out\n        /* \"#utility.yul\":8175:8252   */\n    tag_70:\n        /* \"#utility.yul\":8212:8219   */\n      0x00\n        /* \"#utility.yul\":8241:8246   */\n      dup2\n        /* \"#utility.yul\":8230:8246   */\n      swap1\n      pop\n        /* \"#utility.yul\":8175:8252   */\n      swap2\n      swap1\n      pop\n      jump\t// out\n        /* \"#utility.yul\":8258:8318   */\n    tag_71:\n        /* \"#utility.yul\":8286:8289   */\n      0x00\n        /* \"#utility.yul\":8307:8312   */\n      dup2\n        /* \"#utility.yul\":8300:8312   */\n      swap1\n      pop\n        /* \"#utility.yul\":8258:8318   */\n      swap2\n      swap1\n      pop\n      jump\t// out\n        /* \"#utility.yul\":8324:8466   */\n    tag_72:\n        /* \"#utility.yul\":8374:8383   */\n      0x00\n        /* \"#utility.yul\":8407:8460   */\n      tag_172\n        /* \"#utility.yul\":8425:8459   */\n      tag_173\n        /* \"#utility.yul\":8434:8458   */\n      tag_174\n        /* \"#utility.yul\":8452:8457   */\n      dup5\n        /* \"#utility.yul\":8434:8458   */\n      tag_70\n      jump\t// in\n    tag_174:\n        /* \"#utility.yul\":8425:8459   */\n      tag_71\n      jump\t// in\n    tag_173:\n        /* \"#utility.yul\":8407:8460   */\n      tag_70\n      jump\t// in\n    tag_172:\n        /* \"#utility.yul\":8394:8460   */\n      swap1\n      pop\n        /* \"#utility.yul\":8324:8466   */\n      swap2\n      swap1\n      pop\n      jump\t// out\n        /* \"#utility.yul\":8472:8547   */\n    tag_73:\n        /* \"#utility.yul\":8515:8518   */\n      0x00\n        /* \"#utility.yul\":8536:8541   */\n      dup2\n        /* \"#utility.yul\":8529:8541   */\n      swap1\n      pop\n        /* \"#utility.yul\":8472:8547   */\n      swap2\n      swap1\n      pop\n      jump\t// out\n        /* \"#utility.yul\":8553:8822   */\n    tag_74:\n        /* \"#utility.yul\":8663:8702   */\n      tag_177\n        /* \"#utility.yul\":8694:8701   */\n      dup4\n        /* \"#utility.yul\":8663:8702   */\n      tag_72\n      jump\t// in\n    tag_177:\n        /* \"#utility.yul\":8724:8815   */\n      tag_178\n        /* \"#utility.yul\":8773:8814   */\n      tag_179\n        /* \"#utility.yul\":8797:8813   */\n      dup3\n        /* \"#utility.yul\":8773:8814   */\n      tag_73\n      jump\t// in\n    tag_179:\n        /* \"#utility.yul\":8765:8771   */\n      dup5\n        /* \"#utility.yul\":8758:8762   */\n      dup5\n        /* \"#utility.yul\":8752:8763   */\n      sload\n        /* \"#utility.yul\":8724:8815   */\n      tag_69\n      jump\t// in\n    tag_178:\n        /* \"#utility.yul\":8718:8722   */\n      dup3\n        /* \"#utility.yul\":8711:8816   */\n      sstore\n        /* \"#utility.yul\":8629:8822   */\n      pop\n        /* \"#utility.yul\":8553:8822   */\n      pop\n      pop\n      pop\n      jump\t// out\n        /* \"#utility.yul\":8828:8901   */\n    tag_75:\n        /* \"#utility.yul\":8873:8876   */\n      0x00\n        /* \"#utility.yul\":8828:8901   */\n      swap1\n      jump\t// out\n        /* \"#utility.yul\":8907:9096   */\n    tag_76:\n        /* \"#utility.yul\":8984:9016   */\n      tag_182\n      tag_75\n      jump\t// in\n    tag_182:\n        /* \"#utility.yul\":9025:9090   */\n      tag_183\n        /* \"#utility.yul\":9083:9089   */\n      dup2\n        /* \"#utility.yul\":9075:9081   */\n      dup5\n        /* \"#utility.yul\":9069:9073   */\n      dup5\n        /* \"#utility.yul\":9025:9090   */\n      tag_74\n      jump\t// in\n    tag_183:\n        /* \"#utility.yul\":8960:9096   */\n      pop\n        /* \"#utility.yul\":8907:9096   */\n      pop\n      pop\n      jump\t// out\n        /* \"#utility.yul\":9102:9288   */\n    tag_77:\n        /* \"#utility.yul\":9162:9282   */\n    tag_185:\n        /* \"#utility.yul\":9179:9182   */\n      dup2\n        /* \"#utility.yul\":9172:9177   */\n      dup2\n        /* \"#utility.yul\":9169:9183   */\n      lt\n        /* \"#utility.yul\":9162:9282   */\n      iszero\n      tag_187\n      jumpi\n        /* \"#utility.yul\":9233:9272   */\n      tag_188\n        /* \"#utility.yul\":9270:9271   */\n      0x00\n        /* \"#utility.yul\":9263:9268   */\n      dup3\n        /* \"#utility.yul\":9233:9272   */\n      tag_76\n      jump\t// in\n    tag_188:\n        /* \"#utility.yul\":9206:9207   */\n      0x01\n        /* \"#utility.yul\":9199:9204   */\n      dup2\n        /* \"#utility.yul\":9195:9208   */\n      add\n        /* \"#utility.yul\":9186:9208   */\n      swap1\n      pop\n        /* \"#utility.yul\":9162:9282   */\n      jump(tag_185)\n    tag_187:\n        /* \"#utility.yul\":9102:9288   */\n      pop\n      pop\n      jump\t// out\n        /* \"#utility.yul\":9294:9837   */\n    tag_78:\n        /* \"#utility.yul\":9395:9397   */\n      0x1f\n        /* \"#utility.yul\":9390:9393   */\n      dup3\n        /* \"#utility.yul\":9387:9398   */\n      gt\n        /* \"#utility.yul\":9384:9830   */\n      iszero\n      tag_190\n      jumpi\n        /* \"#utility.yul\":9429:9467   */\n      tag_191\n        /* \"#utility.yul\":9461:9466   */\n      dup2\n        /* \"#utility.yul\":9429:9467   */\n      tag_65\n      jump\t// in\n    tag_191:\n        /* \"#utility.yul\":9513:9542   */\n      tag_192\n        /* \"#utility.yul\":9531:9541   */\n      dup5\n        /* \"#utility.yul\":9513:9542   */\n      tag_67\n      jump\t// in\n    tag_192:\n        /* \"#utility.yul\":9503:9511   */\n      dup2\n        /* \"#utility.yul\":9499:9543   */\n      add\n        /* \"#utility.yul\":9696:9698   */\n      0x20\n        /* \"#utility.yul\":9684:9694   */\n      dup6\n        /* \"#utility.yul\":9681:9699   */\n      lt\n        /* \"#utility.yul\":9678:9727   */\n      iszero\n      tag_193\n      jumpi\n        /* \"#utility.yul\":9717:9725   */\n      dup2\n        /* \"#utility.yul\":9702:9725   */\n      swap1\n      pop\n        /* \"#utility.yul\":9678:9727   */\n    tag_193:\n        /* \"#utility.yul\":9740:9820   */\n      tag_194\n        /* \"#utility.yul\":9796:9818   */\n      tag_195\n        /* \"#utility.yul\":9814:9817   */\n      dup6\n        /* \"#utility.yul\":9796:9818   */\n      tag_67\n      jump\t// in\n    tag_195:\n        /* \"#utility.yul\":9786:9794   */\n      dup4\n        /* \"#utility.yul\":9782:9819   */\n      add\n        /* \"#utility.yul\":9769:9780   */\n      dup3\n        /* \"#utility.yul\":9740:9820   */\n      tag_77\n      jump\t// in\n    tag_194:\n        /* \"#utility.yul\":9399:9830   */\n      pop\n      pop\n        /* \"#utility.yul\":9384:9830   */\n    tag_190:\n        /* \"#utility.yul\":9294:9837   */\n      pop\n      pop\n      pop\n      jump\t// out\n        /* \"#utility.yul\":9843:9960   */\n    tag_79:\n        /* \"#utility.yul\":9897:9905   */\n      0x00\n        /* \"#utility.yul\":9947:9952   */\n      dup3\n        /* \"#utility.yul\":9941:9945   */\n      dup3\n        /* \"#utility.yul\":9937:9953   */\n      shr\n        /* \"#utility.yul\":9916:9953   */\n      swap1\n      pop\n        /* \"#utility.yul\":9843:9960   */\n      swap3\n      swap2\n      pop\n      pop\n      jump\t// out\n        /* \"#utility.yul\":9966:10135   */\n    tag_80:\n        /* \"#utility.yul\":10010:10016   */\n      0x00\n        /* \"#utility.yul\":10043:10094   */\n      tag_198\n        /* \"#utility.yul\":10091:10092   */\n      0x00\n        /* \"#utility.yul\":10087:10093   */\n      not\n        /* \"#utility.yul\":10079:10084   */\n      dup5\n        /* \"#utility.yul\":10076:10077   */\n      0x08\n        /* \"#utility.yul\":10072:10085   */\n      mul\n        /* \"#utility.yul\":10043:10094   */\n      tag_79\n      jump\t// in\n    tag_198:\n        /* \"#utility.yul\":10039:10095   */\n      not\n        /* \"#utility.yul\":10124:10128   */\n      dup1\n        /* \"#utility.yul\":10118:10122   */\n      dup4\n        /* \"#utility.yul\":10114:10129   */\n      and\n        /* \"#utility.yul\":10104:10129   */\n      swap2\n      pop\n        /* \"#utility.yul\":10017:10135   */\n      pop\n        /* \"#utility.yul\":9966:10135   */\n      swap3\n      swap2\n      pop\n      pop\n      jump\t// out\n        /* \"#utility.yul\":10140:10435   */\n    tag_81:\n        /* \"#utility.yul\":10216:10220   */\n      0x00\n        /* \"#utility.yul\":10362:10391   */\n      tag_200\n        /* \"#utility.yul\":10387:10390   */\n      dup4\n        /* \"#utility.yul\":10381:10385   */\n      dup4\n        /* \"#utility.yul\":10362:10391   */\n      tag_80\n      jump\t// in\n    tag_200:\n        /* \"#utility.yul\":10354:10391   */\n      swap2\n      pop\n        /* \"#utility.yul\":10424:10427   */\n      dup3\n        /* \"#utility.yul\":10421:10422   */\n      0x02\n        /* \"#utility.yul\":10417:10428   */\n      mul\n        /* \"#utility.yul\":10411:10415   */\n      dup3\n        /* \"#utility.yul\":10408:10429   */\n      or\n        /* \"#utility.yul\":10400:10429   */\n      swap1\n      pop\n        /* \"#utility.yul\":10140:10435   */\n      swap3\n      swap2\n      pop\n      pop\n      jump\t// out\n        /* \"#utility.yul\":10440:11835   */\n    tag_41:\n        /* \"#utility.yul\":10557:10594   */\n      tag_202\n        /* \"#utility.yul\":10590:10593   */\n      dup3\n        /* \"#utility.yul\":10557:10594   */\n      tag_42\n      jump\t// in\n    tag_202:\n        /* \"#utility.yul\":10659:10677   */\n      0xffffffffffffffff\n        /* \"#utility.yul\":10651:10657   */\n      dup2\n        /* \"#utility.yul\":10648:10678   */\n      gt\n        /* \"#utility.yul\":10645:10701   */\n      iszero\n      tag_203\n      jumpi\n        /* \"#utility.yul\":10681:10699   */\n      tag_204\n      tag_52\n      jump\t// in\n    tag_204:\n        /* \"#utility.yul\":10645:10701   */\n    tag_203:\n        /* \"#utility.yul\":10725:10763   */\n      tag_205\n        /* \"#utility.yul\":10757:10761   */\n      dup3\n        /* \"#utility.yul\":10751:10762   */\n      sload\n        /* \"#utility.yul\":10725:10763   */\n      tag_25\n      jump\t// in\n    tag_205:\n        /* \"#utility.yul\":10810:10877   */\n      tag_206\n        /* \"#utility.yul\":10870:10876   */\n      dup3\n        /* \"#utility.yul\":10862:10868   */\n      dup3\n        /* \"#utility.yul\":10856:10860   */\n      dup6\n        /* \"#utility.yul\":10810:10877   */\n      tag_78\n      jump\t// in\n    tag_206:\n        /* \"#utility.yul\":10904:10905   */\n      0x00\n        /* \"#utility.yul\":10928:10932   */\n      0x20\n        /* \"#utility.yul\":10915:10932   */\n      swap1\n      pop\n        /* \"#utility.yul\":10960:10962   */\n      0x1f\n        /* \"#utility.yul\":10952:10958   */\n      dup4\n        /* \"#utility.yul\":10949:10963   */\n      gt\n        /* \"#utility.yul\":10977:10978   */\n      0x01\n        /* \"#utility.yul\":10972:11590   */\n      dup2\n      eq\n      tag_208\n      jumpi\n        /* \"#utility.yul\":11634:11635   */\n      0x00\n        /* \"#utility.yul\":11651:11657   */\n      dup5\n        /* \"#utility.yul\":11648:11725   */\n      iszero\n      tag_209\n      jumpi\n        /* \"#utility.yul\":11700:11709   */\n      dup3\n        /* \"#utility.yul\":11695:11698   */\n      dup8\n        /* \"#utility.yul\":11691:11710   */\n      add\n        /* \"#utility.yul\":11685:11711   */\n      mload\n        /* \"#utility.yul\":11676:11711   */\n      swap1\n      pop\n        /* \"#utility.yul\":11648:11725   */\n    tag_209:\n        /* \"#utility.yul\":11751:11818   */\n      tag_210\n        /* \"#utility.yul\":11811:11817   */\n      dup6\n        /* \"#utility.yul\":11804:11809   */\n      dup3\n        /* \"#utility.yul\":11751:11818   */\n      tag_81\n      jump\t// in\n    tag_210:\n        /* \"#utility.yul\":11745:11749   */\n      dup7\n        /* \"#utility.yul\":11738:11819   */\n      sstore\n        /* \"#utility.yul\":11607:11829   */\n      pop\n        /* \"#utility.yul\":10942:11829   */\n      jump(tag_207)\n        /* \"#utility.yul\":10972:11590   */\n    tag_208:\n        /* \"#utility.yul\":11024:11028   */\n      0x1f\n        /* \"#utility.yul\":11020:11029   */\n      not\n        /* \"#utility.yul\":11012:11018   */\n      dup5\n        /* \"#utility.yul\":11008:11030   */\n      and\n        /* \"#utility.yul\":11058:11095   */\n      tag_211\n        /* \"#utility.yul\":11090:11094   */\n      dup7\n        /* \"#utility.yul\":11058:11095   */\n      tag_65\n      jump\t// in\n    tag_211:\n        /* \"#utility.yul\":11117:11118   */\n      0x00\n        /* \"#utility.yul\":11131:11339   */\n    tag_212:\n        /* \"#utility.yul\":11145:11152   */\n      dup3\n        /* \"#utility.yul\":11142:11143   */\n      dup2\n        /* \"#utility.yul\":11139:11153   */\n      lt\n        /* \"#utility.yul\":11131:11339   */\n      iszero\n      tag_214\n      jumpi\n        /* \"#utility.yul\":11224:11233   */\n      dup5\n        /* \"#utility.yul\":11219:11222   */\n      dup10\n        /* \"#utility.yul\":11215:11234   */\n      add\n        /* \"#utility.yul\":11209:11235   */\n      mload\n        /* \"#utility.yul\":11201:11207   */\n      dup3\n        /* \"#utility.yul\":11194:11236   */\n      sstore\n        /* \"#utility.yul\":11275:11276   */\n      0x01\n        /* \"#utility.yul\":11267:11273   */\n      dup3\n        /* \"#utility.yul\":11263:11277   */\n      add\n        /* \"#utility.yul\":11253:11277   */\n      swap2\n      pop\n        /* \"#utility.yul\":11322:11324   */\n      0x20\n        /* \"#utility.yul\":11311:11320   */\n      dup6\n        /* \"#utility.yul\":11307:11325   */\n      add\n        /* \"#utility.yul\":11294:11325   */\n      swap5\n      pop\n        /* \"#utility.yul\":11168:11172   */\n      0x20\n        /* \"#utility.yul\":11165:11166   */\n      dup2\n        /* \"#utility.yul\":11161:11173   */\n      add\n        /* \"#utility.yul\":11156:11173   */\n      swap1\n      pop\n        /* \"#utility.yul\":11131:11339   */\n      jump(tag_212)\n    tag_214:\n        /* \"#utility.yul\":11367:11373   */\n      dup7\n        /* \"#utility.yul\":11358:11365   */\n      dup4\n        /* \"#utility.yul\":11355:11374   */\n      lt\n        /* \"#utility.yul\":11352:11531   */\n      iszero\n      tag_215\n      jumpi\n        /* \"#utility.yul\":11425:11434   */\n      dup5\n        /* \"#utility.yul\":11420:11423   */\n      dup10\n        /* \"#utility.yul\":11416:11435   */\n      add\n        /* \"#utility.yul\":11410:11436   */\n      mload\n        /* \"#utility.yul\":11468:11516   */\n      tag_216\n        /* \"#utility.yul\":11510:11514   */\n      0x1f\n        /* \"#utility.yul\":11502:11508   */\n      dup10\n        /* \"#utility.yul\":11498:11515   */\n      and\n        /* \"#utility.yul\":11487:11496   */\n      dup3\n        /* \"#utility.yul\":11468:11516   */\n      tag_80\n      jump\t// in\n    tag_216:\n        /* \"#utility.yul\":11460:11466   */\n      dup4\n        /* \"#utility.yul\":11453:11517   */\n      sstore\n        /* \"#utility.yul\":11375:11531   */\n      pop\n        /* \"#utility.yul\":11352:11531   */\n    tag_215:\n        /* \"#utility.yul\":11577:11578   */\n      0x01\n        /* \"#utility.yul\":11573:11574   */\n      0x02\n        /* \"#utility.yul\":11565:11571   */\n      dup9\n        /* \"#utility.yul\":11561:11575   */\n      mul\n        /* \"#utility.yul\":11557:11579   */\n      add\n        /* \"#utility.yul\":11551:11555   */\n      dup9\n        /* \"#utility.yul\":11544:11580   */\n      sstore\n        /* \"#utility.yul\":10979:11590   */\n      pop\n      pop\n      pop\n        /* \"#utility.yul\":10942:11829   */\n    tag_207:\n      pop\n        /* \"#utility.yul\":10532:11835   */\n      pop\n      pop\n      pop\n        /* \"#utility.yul\":10440:11835   */\n      pop\n      pop\n      jump\t// out\n\n    auxdata: 0xa26469706673582212207150476188466e9bceaa240096ce38f2cd2b8db59a8fde99dd95d6f65125c05764736f6c634300080f0033\n}\n",
				"bytecode": {
					"linkReferences": {},
					"object": "60806040526040518060400160405280600b81526020017f48656c6c6f20576f726c64000000000000000000000000000000000000000000815250600090816200004a919062000320565b506040518060400160405280600b81526020017f48656c6c6f20576f726c64000000000000000000000000000000000000000000815250600190816200009191906200046c565b503480156200009f57600080fd5b5062000553565b600081519050919050565b7f4e487b7100000000000000000000000000000000000000000000000000000000600052604160045260246000fd5b7f4e487b7100000000000000000000000000000000000000000000000000000000600052602260045260246000fd5b600060028204905060018216806200012857607f821691505b6020821081036200013e576200013d620000e0565b5b50919050565b60008190508160005260206000209050919050565b60006020601f8301049050919050565b600082821b905092915050565b600060088302620001a87fffffffffffffffffffffffffffffffffffffffffffffffffffffffffffffffff8262000169565b620001b4868362000169565b95508019841693508086168417925050509392505050565b6000819050919050565b6000819050919050565b600062000201620001fb620001f584620001cc565b620001d6565b620001cc565b9050919050565b6000819050919050565b6200021d83620001e0565b620002356200022c8262000208565b84845462000176565b825550505050565b600090565b6200024c6200023d565b6200025981848462000212565b505050565b5b8181101562000281576200027560008262000242565b6001810190506200025f565b5050565b601f821115620002d0576200029a8162000144565b620002a58462000159565b81016020851015620002b5578190505b620002cd620002c48562000159565b8301826200025e565b50505b505050565b600082821c905092915050565b6000620002f560001984600802620002d5565b1980831691505092915050565b6000620003108383620002e2565b9150826002028217905092915050565b6200032b82620000a6565b67ffffffffffffffff811115620003475762000346620000b1565b5b6200035382546200010f565b6200036082828562000285565b600060209050601f83116001811462000398576000841562000383578287015190505b6200038f858262000302565b865550620003ff565b601f198416620003a88662000144565b60005b82811015620003d257848901518255600182019150602085019450602081019050620003ab565b86831015620003f25784890151620003ee601f891682620002e2565b8355505b6001600288020188555050505b505050505050565b60008190508160005260206000209050919050565b601f8211156200046757620004318162000407565b6200043c8462000159565b810160208510156200044c578190505b620004646200045b8562000159565b8301826200025e565b50505b505050565b6200047782620000a6565b67ffffffffffffffff811115620004935762000492620000b1565b5b6200049f82546200010f565b620004ac8282856200041c565b600060209050601f831160018114620004e45760008415620004cf578287015190505b620004db858262000302565b8655506200054b565b601f198416620004f48662000407565b60005b828110156200051e57848901518255600182019150602085019450602081019050620004f7565b868310156200053e57848901516200053a601f891682620002e2565b8355505b6001600288020188555050505b505050505050565b61091f80620005636000396000f3fe608060405234801561001057600080fd5b506004361061004c5760003560e01c8063492bfa18146100515780635ce253531461006f578063712f46021461009f57806382180568146100bd575b600080fd5b6100596100d9565b60405161006691906102fa565b60405180910390f35b61008960048036038101906100849190610465565b610167565b60405161009691906104c9565b60405180910390f35b6100a76101c0565b6040516100b49190610539565b60405180910390f35b6100d760048036038101906100d29190610465565b61024e565b005b600080546100e69061058a565b80601f01602080910402602001604051908101604052809291908181526020018280546101129061058a565b801561015f5780601f106101345761010080835404028352916020019161015f565b820191906000526020600020905b81548152906001019060200180831161014257829003601f168201915b505050505081565b60008160405160200161017a91906102fa565b6040516020818303038152906040528051906020012060006040516020016101a29190610654565b60405160208183030381529060405280519060200120149050919050565b600180546101cd9061058a565b80601f01602080910402602001604051908101604052809291908181526020018280546101f99061058a565b80156102465780601f1061021b57610100808354040283529160200191610246565b820191906000526020600020905b81548152906001019060200180831161022957829003601f168201915b505050505081565b806000908161025d9190610817565b5050565b600081519050919050565b600082825260208201905092915050565b60005b8381101561029b578082015181840152602081019050610280565b838111156102aa576000848401525b50505050565b6000601f19601f8301169050919050565b60006102cc82610261565b6102d6818561026c565b93506102e681856020860161027d565b6102ef816102b0565b840191505092915050565b6000602082019050818103600083015261031481846102c1565b905092915050565b6000604051905090565b600080fd5b600080fd5b600080fd5b600080fd5b7f4e487b7100000000000000000000000000000000000000000000000000000000600052604160045260246000fd5b610372826102b0565b810181811067ffffffffffffffff821117156103915761039061033a565b5b80604052505050565b60006103a461031c565b90506103b08282610369565b919050565b600067ffffffffffffffff8211156103d0576103cf61033a565b5b6103d9826102b0565b9050602081019050919050565b82818337600083830152505050565b6000610408610403846103b5565b61039a565b90508281526020810184848401111561042457610423610335565b5b61042f8482856103e6565b509392505050565b600082601f83011261044c5761044b610330565b5b813561045c8482602086016103f5565b91505092915050565b60006020828403121561047b5761047a610326565b5b600082013567ffffffffffffffff8111156104995761049861032b565b5b6104a584828501610437565b91505092915050565b60008115159050919050565b6104c3816104ae565b82525050565b60006020820190506104de60008301846104ba565b92915050565b600081519050919050565b600082825260208201905092915050565b600061050b826104e4565b61051581856104ef565b935061052581856020860161027d565b61052e816102b0565b840191505092915050565b600060208201905081810360008301526105538184610500565b905092915050565b7f4e487b7100000000000000000000000000000000000000000000000000000000600052602260045260246000fd5b600060028204905060018216806105a257607f821691505b6020821081036105b5576105b461055b565b5b50919050565b60008190508160005260206000209050919050565b600081546105dd8161058a565b6105e7818661026c565b9450600182166000811461060257600181146106185761064b565b60ff19831686528115156020028601935061064b565b610621856105bb565b60005b8381101561064357815481890152600182019150602081019050610624565b808801955050505b50505092915050565b6000602082019050818103600083015261066e81846105d0565b905092915050565b60006020601f8301049050919050565b600082821b905092915050565b6000600883026106c37fffffffffffffffffffffffffffffffffffffffffffffffffffffffffffffffff82610686565b6106cd8683610686565b95508019841693508086168417925050509392505050565b6000819050919050565b6000819050919050565b600061071461070f61070a846106e5565b6106ef565b6106e5565b9050919050565b6000819050919050565b61072e836106f9565b61074261073a8261071b565b848454610693565b825550505050565b600090565b61075761074a565b610762818484610725565b505050565b5b818110156107865761077b60008261074f565b600181019050610768565b5050565b601f8211156107cb5761079c816105bb565b6107a584610676565b810160208510156107b4578190505b6107c86107c085610676565b830182610767565b50505b505050565b600082821c905092915050565b60006107ee600019846008026107d0565b1980831691505092915050565b600061080783836107dd565b9150826002028217905092915050565b61082082610261565b67ffffffffffffffff8111156108395761083861033a565b5b610843825461058a565b61084e82828561078a565b600060209050601f831160018114610881576000841561086f578287015190505b61087985826107fb565b8655506108e1565b601f19841661088f866105bb565b60005b828110156108b757848901518255600182019150602085019450602081019050610892565b868310156108d457848901516108d0601f8916826107dd565b8355505b6001600288020188555050505b50505050505056fea26469706673582212207150476188466e9bceaa240096ce38f2cd2b8db59a8fde99dd95d6f65125c05764736f6c634300080f0033",
					"opcodes": "PUSH1 0x80 PUSH1 0x40 MSTORE PUSH1 0x40 MLOAD DUP1 PUSH1 0x40 ADD PUSH1 0x40 MSTORE DUP1 PUSH1 0xB DUP2 MSTORE PUSH1 0x20 ADD PUSH32 0x48656C6C6F20576F726C64000000000000000000000000000000000000000000 DUP2 MSTORE POP PUSH1 0x0 SWAP1 DUP2 PUSH3 0x4A SWAP2 SWAP1 PUSH3 0x320 JUMP JUMPDEST POP PUSH1 0x40 MLOAD DUP1 PUSH1 0x40 ADD PUSH1 0x40 MSTORE DUP1 PUSH1 0xB DUP2 MSTORE PUSH1 0x20 ADD PUSH32 0x48656C6C6F20576F726C64000000000000000000000000000000000000000000 DUP2 MSTORE POP PUSH1 0x1 SWAP1 DUP2 PUSH3 0x91 SWAP2 SWAP1 PUSH3 0x46C JUMP JUMPDEST POP CALLVALUE DUP1 ISZERO PUSH3 0x9F JUMPI PUSH1 0x0 DUP1 REVERT JUMPDEST POP PUSH3 0x553 JUMP JUMPDEST PUSH1 0x0 DUP2 MLOAD SWAP1 POP SWAP2 SWAP1 POP JUMP JUMPDEST PUSH32 0x4E487B7100000000000000000000000000000000000000000000000000000000 PUSH1 0x0 MSTORE PUSH1 0x41 PUSH1 0x4 MSTORE PUSH1 0x24 PUSH1 0x0 REVERT JUMPDEST PUSH32 0x4E487B7100000000000000000000000000000000000000000000000000000000 PUSH1 0x0 MSTORE PUSH1 0x22 PUSH1 0x4 MSTORE PUSH1 0x24 PUSH1 0x0 REVERT JUMPDEST PUSH1 0x0 PUSH1 0x2 DUP3 DIV SWAP1 POP PUSH1 0x1 DUP3 AND DUP1 PUSH3 0x128 JUMPI PUSH1 0x7F DUP3 AND SWAP2 POP JUMPDEST PUSH1 0x20 DUP3 LT DUP2 SUB PUSH3 0x13E JUMPI PUSH3 0x13D PUSH3 0xE0 JUMP JUMPDEST JUMPDEST POP SWAP2 SWAP1 POP JUMP JUMPDEST PUSH1 0x0 DUP2 SWAP1 POP DUP2 PUSH1 0x0 MSTORE PUSH1 0x20 PUSH1 0x0 KECCAK256 SWAP1 POP SWAP2 SWAP1 POP JUMP JUMPDEST PUSH1 0x0 PUSH1 0x20 PUSH1 0x1F DUP4 ADD DIV SWAP1 POP SWAP2 SWAP1 POP JUMP JUMPDEST PUSH1 0x0 DUP3 DUP3 SHL SWAP1 POP SWAP3 SWAP2 POP POP JUMP JUMPDEST PUSH1 0x0 PUSH1 0x8 DUP4 MUL PUSH3 0x1A8 PUSH32 0xFFFFFFFFFFFFFFFFFFFFFFFFFFFFFFFFFFFFFFFFFFFFFFFFFFFFFFFFFFFFFFFF DUP3 PUSH3 0x169 JUMP JUMPDEST PUSH3 0x1B4 DUP7 DUP4 PUSH3 0x169 JUMP JUMPDEST SWAP6 POP DUP1 NOT DUP5 AND SWAP4 POP DUP1 DUP7 AND DUP5 OR SWAP3 POP POP POP SWAP4 SWAP3 POP POP POP JUMP JUMPDEST PUSH1 0x0 DUP2 SWAP1 POP SWAP2 SWAP1 POP JUMP JUMPDEST PUSH1 0x0 DUP2 SWAP1 POP SWAP2 SWAP1 POP JUMP JUMPDEST PUSH1 0x0 PUSH3 0x201 PUSH3 0x1FB PUSH3 0x1F5 DUP5 PUSH3 0x1CC JUMP JUMPDEST PUSH3 0x1D6 JUMP JUMPDEST PUSH3 0x1CC JUMP JUMPDEST SWAP1 POP SWAP2 SWAP1 POP JUMP JUMPDEST PUSH1 0x0 DUP2 SWAP1 POP SWAP2 SWAP1 POP JUMP JUMPDEST PUSH3 0x21D DUP4 PUSH3 0x1E0 JUMP JUMPDEST PUSH3 0x235 PUSH3 0x22C DUP3 PUSH3 0x208 JUMP JUMPDEST DUP5 DUP5 SLOAD PUSH3 0x176 JUMP JUMPDEST DUP3 SSTORE POP POP POP POP JUMP JUMPDEST PUSH1 0x0 SWAP1 JUMP JUMPDEST PUSH3 0x24C PUSH3 0x23D JUMP JUMPDEST PUSH3 0x259 DUP2 DUP5 DUP5 PUSH3 0x212 JUMP JUMPDEST POP POP POP JUMP JUMPDEST JUMPDEST DUP2 DUP2 LT ISZERO PUSH3 0x281 JUMPI PUSH3 0x275 PUSH1 0x0 DUP3 PUSH3 0x242 JUMP JUMPDEST PUSH1 0x1 DUP2 ADD SWAP1 POP PUSH3 0x25F JUMP JUMPDEST POP POP JUMP JUMPDEST PUSH1 0x1F DUP3 GT ISZERO PUSH3 0x2D0 JUMPI PUSH3 0x29A DUP2 PUSH3 0x144 JUMP JUMPDEST PUSH3 0x2A5 DUP5 PUSH3 0x159 JUMP JUMPDEST DUP2 ADD PUSH1 0x20 DUP6 LT ISZERO PUSH3 0x2B5 JUMPI DUP2 SWAP1 POP JUMPDEST PUSH3 0x2CD PUSH3 0x2C4 DUP6 PUSH3 0x159 JUMP JUMPDEST DUP4 ADD DUP3 PUSH3 0x25E JUMP JUMPDEST POP POP JUMPDEST POP POP POP JUMP JUMPDEST PUSH1 0x0 DUP3 DUP3 SHR SWAP1 POP SWAP3 SWAP2 POP POP JUMP JUMPDEST PUSH1 0x0 PUSH3 0x2F5 PUSH1 0x0 NOT DUP5 PUSH1 0x8 MUL PUSH3 0x2D5 JUMP JUMPDEST NOT DUP1 DUP4 AND SWAP2 POP POP SWAP3 SWAP2 POP POP JUMP JUMPDEST PUSH1 0x0 PUSH3 0x310 DUP4 DUP4 PUSH3 0x2E2 JUMP JUMPDEST SWAP2 POP DUP3 PUSH1 0x2 MUL DUP3 OR SWAP1 POP SWAP3 SWAP2 POP POP JUMP JUMPDEST PUSH3 0x32B DUP3 PUSH3 0xA6 JUMP JUMPDEST PUSH8 0xFFFFFFFFFFFFFFFF DUP2 GT ISZERO PUSH3 0x347 JUMPI PUSH3 0x346 PUSH3 0xB1 JUMP JUMPDEST JUMPDEST PUSH3 0x353 DUP3 SLOAD PUSH3 0x10F JUMP JUMPDEST PUSH3 0x360 DUP3 DUP3 DUP6 PUSH3 0x285 JUMP JUMPDEST PUSH1 0x0 PUSH1 0x20 SWAP1 POP PUSH1 0x1F DUP4 GT PUSH1 0x1 DUP2 EQ PUSH3 0x398 JUMPI PUSH1 0x0 DUP5 ISZERO PUSH3 0x383 JUMPI DUP3 DUP8 ADD MLOAD SWAP1 POP JUMPDEST PUSH3 0x38F DUP6 DUP3 PUSH3 0x302 JUMP JUMPDEST DUP7 SSTORE POP PUSH3 0x3FF JUMP JUMPDEST PUSH1 0x1F NOT DUP5 AND PUSH3 0x3A8 DUP7 PUSH3 0x144 JUMP JUMPDEST PUSH1 0x0 JUMPDEST DUP3 DUP2 LT ISZERO PUSH3 0x3D2 JUMPI DUP5 DUP10 ADD MLOAD DUP3 SSTORE PUSH1 0x1 DUP3 ADD SWAP2 POP PUSH1 0x20 DUP6 ADD SWAP5 POP PUSH1 0x20 DUP2 ADD SWAP1 POP PUSH3 0x3AB JUMP JUMPDEST DUP7 DUP4 LT ISZERO PUSH3 0x3F2 JUMPI DUP5 DUP10 ADD MLOAD PUSH3 0x3EE PUSH1 0x1F DUP10 AND DUP3 PUSH3 0x2E2 JUMP JUMPDEST DUP4 SSTORE POP JUMPDEST PUSH1 0x1 PUSH1 0x2 DUP9 MUL ADD DUP9 SSTORE POP POP POP JUMPDEST POP POP POP POP POP POP JUMP JUMPDEST PUSH1 0x0 DUP2 SWAP1 POP DUP2 PUSH1 0x0 MSTORE PUSH1 0x20 PUSH1 0x0 KECCAK256 SWAP1 POP SWAP2 SWAP1 POP JUMP JUMPDEST PUSH1 0x1F DUP3 GT ISZERO PUSH3 0x467 JUMPI PUSH3 0x431 DUP2 PUSH3 0x407 JUMP JUMPDEST PUSH3 0x43C DUP5 PUSH3 0x159 JUMP JUMPDEST DUP2 ADD PUSH1 0x20 DUP6 LT ISZERO PUSH3 0x44C JUMPI DUP2 SWAP1 POP JUMPDEST PUSH3 0x464 PUSH3 0x45B DUP6 PUSH3 0x159 JUMP JUMPDEST DUP4 ADD DUP3 PUSH3 0x25E JUMP JUMPDEST POP POP JUMPDEST POP POP POP JUMP JUMPDEST PUSH3 0x477 DUP3 PUSH3 0xA6 JUMP JUMPDEST PUSH8 0xFFFFFFFFFFFFFFFF DUP2 GT ISZERO PUSH3 0x493 JUMPI PUSH3 0x492 PUSH3 0xB1 JUMP JUMPDEST JUMPDEST PUSH3 0x49F DUP3 SLOAD PUSH3 0x10F JUMP JUMPDEST PUSH3 0x4AC DUP3 DUP3 DUP6 PUSH3 0x41C JUMP JUMPDEST PUSH1 0x0 PUSH1 0x20 SWAP1 POP PUSH1 0x1F DUP4 GT PUSH1 0x1 DUP2 EQ PUSH3 0x4E4 JUMPI PUSH1 0x0 DUP5 ISZERO PUSH3 0x4CF JUMPI DUP3 DUP8 ADD MLOAD SWAP1 POP JUMPDEST PUSH3 0x4DB DUP6 DUP3 PUSH3 0x302 JUMP JUMPDEST DUP7 SSTORE POP PUSH3 0x54B JUMP JUMPDEST PUSH1 0x1F NOT DUP5 AND PUSH3 0x4F4 DUP7 PUSH3 0x407 JUMP JUMPDEST PUSH1 0x0 JUMPDEST DUP3 DUP2 LT ISZERO PUSH3 0x51E JUMPI DUP5 DUP10 ADD MLOAD DUP3 SSTORE PUSH1 0x1 DUP3 ADD SWAP2 POP PUSH1 0x20 DUP6 ADD SWAP5 POP PUSH1 0x20 DUP2 ADD SWAP1 POP PUSH3 0x4F7 JUMP JUMPDEST DUP7 DUP4 LT ISZERO PUSH3 0x53E JUMPI DUP5 DUP10 ADD MLOAD PUSH3 0x53A PUSH1 0x1F DUP10 AND DUP3 PUSH3 0x2E2 JUMP JUMPDEST DUP4 SSTORE POP JUMPDEST PUSH1 0x1 PUSH1 0x2 DUP9 MUL ADD DUP9 SSTORE POP POP POP JUMPDEST POP POP POP POP POP POP JUMP JUMPDEST PUSH2 0x91F DUP1 PUSH3 0x563 PUSH1 0x0 CODECOPY PUSH1 0x0 RETURN INVALID PUSH1 0x80 PUSH1 0x40 MSTORE CALLVALUE DUP1 ISZERO PUSH2 0x10 JUMPI PUSH1 0x0 DUP1 REVERT JUMPDEST POP PUSH1 0x4 CALLDATASIZE LT PUSH2 0x4C JUMPI PUSH1 0x0 CALLDATALOAD PUSH1 0xE0 SHR DUP1 PUSH4 0x492BFA18 EQ PUSH2 0x51 JUMPI DUP1 PUSH4 0x5CE25353 EQ PUSH2 0x6F JUMPI DUP1 PUSH4 0x712F4602 EQ PUSH2 0x9F JUMPI DUP1 PUSH4 0x82180568 EQ PUSH2 0xBD JUMPI JUMPDEST PUSH1 0x0 DUP1 REVERT JUMPDEST PUSH2 0x59 PUSH2 0xD9 JUMP JUMPDEST PUSH1 0x40 MLOAD PUSH2 0x66 SWAP2 SWAP1 PUSH2 0x2FA JUMP JUMPDEST PUSH1 0x40 MLOAD DUP1 SWAP2 SUB SWAP1 RETURN JUMPDEST PUSH2 0x89 PUSH1 0x4 DUP1 CALLDATASIZE SUB DUP2 ADD SWAP1 PUSH2 0x84 SWAP2 SWAP1 PUSH2 0x465 JUMP JUMPDEST PUSH2 0x167 JUMP JUMPDEST PUSH1 0x40 MLOAD PUSH2 0x96 SWAP2 SWAP1 PUSH2 0x4C9 JUMP JUMPDEST PUSH1 0x40 MLOAD DUP1 SWAP2 SUB SWAP1 RETURN JUMPDEST PUSH2 0xA7 PUSH2 0x1C0 JUMP JUMPDEST PUSH1 0x40 MLOAD PUSH2 0xB4 SWAP2 SWAP1 PUSH2 0x539 JUMP JUMPDEST PUSH1 0x40 MLOAD DUP1 SWAP2 SUB SWAP1 RETURN JUMPDEST PUSH2 0xD7 PUSH1 0x4 DUP1 CALLDATASIZE SUB DUP2 ADD SWAP1 PUSH2 0xD2 SWAP2 SWAP1 PUSH2 0x465 JUMP JUMPDEST PUSH2 0x24E JUMP JUMPDEST STOP JUMPDEST PUSH1 0x0 DUP1 SLOAD PUSH2 0xE6 SWAP1 PUSH2 0x58A JUMP JUMPDEST DUP1 PUSH1 0x1F ADD PUSH1 0x20 DUP1 SWAP2 DIV MUL PUSH1 0x20 ADD PUSH1 0x40 MLOAD SWAP1 DUP2 ADD PUSH1 0x40 MSTORE DUP1 SWAP3 SWAP2 SWAP1 DUP2 DUP2 MSTORE PUSH1 0x20 ADD DUP3 DUP1 SLOAD PUSH2 0x112 SWAP1 PUSH2 0x58A JUMP JUMPDEST DUP1 ISZERO PUSH2 0x15F JUMPI DUP1 PUSH1 0x1F LT PUSH2 0x134 JUMPI PUSH2 0x100 DUP1 DUP4 SLOAD DIV MUL DUP4 MSTORE SWAP2 PUSH1 0x20 ADD SWAP2 PUSH2 0x15F JUMP JUMPDEST DUP3 ADD SWAP2 SWAP1 PUSH1 0x0 MSTORE PUSH1 0x20 PUSH1 0x0 KECCAK256 SWAP1 JUMPDEST DUP2 SLOAD DUP2 MSTORE SWAP1 PUSH1 0x1 ADD SWAP1 PUSH1 0x20 ADD DUP1 DUP4 GT PUSH2 0x142 JUMPI DUP3 SWAP1 SUB PUSH1 0x1F AND DUP3 ADD SWAP2 JUMPDEST POP POP POP POP POP DUP2 JUMP JUMPDEST PUSH1 0x0 DUP2 PUSH1 0x40 MLOAD PUSH1 0x20 ADD PUSH2 0x17A SWAP2 SWAP1 PUSH2 0x2FA JUMP JUMPDEST PUSH1 0x40 MLOAD PUSH1 0x20 DUP2 DUP4 SUB SUB DUP2 MSTORE SWAP1 PUSH1 0x40 MSTORE DUP1 MLOAD SWAP1 PUSH1 0x20 ADD KECCAK256 PUSH1 0x0 PUSH1 0x40 MLOAD PUSH1 0x20 ADD PUSH2 0x1A2 SWAP2 SWAP1 PUSH2 0x654 JUMP JUMPDEST PUSH1 0x40 MLOAD PUSH1 0x20 DUP2 DUP4 SUB SUB DUP2 MSTORE SWAP1 PUSH1 0x40 MSTORE DUP1 MLOAD SWAP1 PUSH1 0x20 ADD KECCAK256 EQ SWAP1 POP SWAP2 SWAP1 POP JUMP JUMPDEST PUSH1 0x1 DUP1 SLOAD PUSH2 0x1CD SWAP1 PUSH2 0x58A JUMP JUMPDEST DUP1 PUSH1 0x1F ADD PUSH1 0x20 DUP1 SWAP2 DIV MUL PUSH1 0x20 ADD PUSH1 0x40 MLOAD SWAP1 DUP2 ADD PUSH1 0x40 MSTORE DUP1 SWAP3 SWAP2 SWAP1 DUP2 DUP2 MSTORE PUSH1 0x20 ADD DUP3 DUP1 SLOAD PUSH2 0x1F9 SWAP1 PUSH2 0x58A JUMP JUMPDEST DUP1 ISZERO PUSH2 0x246 JUMPI DUP1 PUSH1 0x1F LT PUSH2 0x21B JUMPI PUSH2 0x100 DUP1 DUP4 SLOAD DIV MUL DUP4 MSTORE SWAP2 PUSH1 0x20 ADD SWAP2 PUSH2 0x246 JUMP JUMPDEST DUP3 ADD SWAP2 SWAP1 PUSH1 0x0 MSTORE PUSH1 0x20 PUSH1 0x0 KECCAK256 SWAP1 JUMPDEST DUP2 SLOAD DUP2 MSTORE SWAP1 PUSH1 0x1 ADD SWAP1 PUSH1 0x20 ADD DUP1 DUP4 GT PUSH2 0x229 JUMPI DUP3 SWAP1 SUB PUSH1 0x1F AND DUP3 ADD SWAP2 JUMPDEST POP POP POP POP POP DUP2 JUMP JUMPDEST DUP1 PUSH1 0x0 SWAP1 DUP2 PUSH2 0x25D SWAP2 SWAP1 PUSH2 0x817 JUMP JUMPDEST POP POP JUMP JUMPDEST PUSH1 0x0 DUP2 MLOAD SWAP1 POP SWAP2 SWAP1 POP JUMP JUMPDEST PUSH1 0x0 DUP3 DUP3 MSTORE PUSH1 0x20 DUP3 ADD SWAP1 POP SWAP3 SWAP2 POP POP JUMP JUMPDEST PUSH1 0x0 JUMPDEST DUP4 DUP2 LT ISZERO PUSH2 0x29B JUMPI DUP1 DUP3 ADD MLOAD DUP2 DUP5 ADD MSTORE PUSH1 0x20 DUP2 ADD SWAP1 POP PUSH2 0x280 JUMP JUMPDEST DUP4 DUP2 GT ISZERO PUSH2 0x2AA JUMPI PUSH1 0x0 DUP5 DUP5 ADD MSTORE JUMPDEST POP POP POP POP JUMP JUMPDEST PUSH1 0x0 PUSH1 0x1F NOT PUSH1 0x1F DUP4 ADD AND SWAP1 POP SWAP2 SWAP1 POP JUMP JUMPDEST PUSH1 0x0 PUSH2 0x2CC DUP3 PUSH2 0x261 JUMP JUMPDEST PUSH2 0x2D6 DUP2 DUP6 PUSH2 0x26C JUMP JUMPDEST SWAP4 POP PUSH2 0x2E6 DUP2 DUP6 PUSH1 0x20 DUP7 ADD PUSH2 0x27D JUMP JUMPDEST PUSH2 0x2EF DUP2 PUSH2 0x2B0 JUMP JUMPDEST DUP5 ADD SWAP2 POP POP SWAP3 SWAP2 POP POP JUMP JUMPDEST PUSH1 0x0 PUSH1 0x20 DUP3 ADD SWAP1 POP DUP2 DUP2 SUB PUSH1 0x0 DUP4 ADD MSTORE PUSH2 0x314 DUP2 DUP5 PUSH2 0x2C1 JUMP JUMPDEST SWAP1 POP SWAP3 SWAP2 POP POP JUMP JUMPDEST PUSH1 0x0 PUSH1 0x40 MLOAD SWAP1 POP SWAP1 JUMP JUMPDEST PUSH1 0x0 DUP1 REVERT JUMPDEST PUSH1 0x0 DUP1 REVERT JUMPDEST PUSH1 0x0 DUP1 REVERT JUMPDEST PUSH1 0x0 DUP1 REVERT JUMPDEST PUSH32 0x4E487B7100000000000000000000000000000000000000000000000000000000 PUSH1 0x0 MSTORE PUSH1 0x41 PUSH1 0x4 MSTORE PUSH1 0x24 PUSH1 0x0 REVERT JUMPDEST PUSH2 0x372 DUP3 PUSH2 0x2B0 JUMP JUMPDEST DUP2 ADD DUP2 DUP2 LT PUSH8 0xFFFFFFFFFFFFFFFF DUP3 GT OR ISZERO PUSH2 0x391 JUMPI PUSH2 0x390 PUSH2 0x33A JUMP JUMPDEST JUMPDEST DUP1 PUSH1 0x40 MSTORE POP POP POP JUMP JUMPDEST PUSH1 0x0 PUSH2 0x3A4 PUSH2 0x31C JUMP JUMPDEST SWAP1 POP PUSH2 0x3B0 DUP3 DUP3 PUSH2 0x369 JUMP JUMPDEST SWAP2 SWAP1 POP JUMP JUMPDEST PUSH1 0x0 PUSH8 0xFFFFFFFFFFFFFFFF DUP3 GT ISZERO PUSH2 0x3D0 JUMPI PUSH2 0x3CF PUSH2 0x33A JUMP JUMPDEST JUMPDEST PUSH2 0x3D9 DUP3 PUSH2 0x2B0 JUMP JUMPDEST SWAP1 POP PUSH1 0x20 DUP2 ADD SWAP1 POP SWAP2 SWAP1 POP JUMP JUMPDEST DUP3 DUP2 DUP4 CALLDATACOPY PUSH1 0x0 DUP4 DUP4 ADD MSTORE POP POP POP JUMP JUMPDEST PUSH1 0x0 PUSH2 0x408 PUSH2 0x403 DUP5 PUSH2 0x3B5 JUMP JUMPDEST PUSH2 0x39A JUMP JUMPDEST SWAP1 POP DUP3 DUP2 MSTORE PUSH1 0x20 DUP2 ADD DUP5 DUP5 DUP5 ADD GT ISZERO PUSH2 0x424 JUMPI PUSH2 0x423 PUSH2 0x335 JUMP JUMPDEST JUMPDEST PUSH2 0x42F DUP5 DUP3 DUP6 PUSH2 0x3E6 JUMP JUMPDEST POP SWAP4 SWAP3 POP POP POP JUMP JUMPDEST PUSH1 0x0 DUP3 PUSH1 0x1F DUP4 ADD SLT PUSH2 0x44C JUMPI PUSH2 0x44B PUSH2 0x330 JUMP JUMPDEST JUMPDEST DUP2 CALLDATALOAD PUSH2 0x45C DUP5 DUP3 PUSH1 0x20 DUP7 ADD PUSH2 0x3F5 JUMP JUMPDEST SWAP2 POP POP SWAP3 SWAP2 POP POP JUMP JUMPDEST PUSH1 0x0 PUSH1 0x20 DUP3 DUP5 SUB SLT ISZERO PUSH2 0x47B JUMPI PUSH2 0x47A PUSH2 0x326 JUMP JUMPDEST JUMPDEST PUSH1 0x0 DUP3 ADD CALLDATALOAD PUSH8 0xFFFFFFFFFFFFFFFF DUP2 GT ISZERO PUSH2 0x499 JUMPI PUSH2 0x498 PUSH2 0x32B JUMP JUMPDEST JUMPDEST PUSH2 0x4A5 DUP5 DUP3 DUP6 ADD PUSH2 0x437 JUMP JUMPDEST SWAP2 POP POP SWAP3 SWAP2 POP POP JUMP JUMPDEST PUSH1 0x0 DUP2 ISZERO ISZERO SWAP1 POP SWAP2 SWAP1 POP JUMP JUMPDEST PUSH2 0x4C3 DUP2 PUSH2 0x4AE JUMP JUMPDEST DUP3 MSTORE POP POP JUMP JUMPDEST PUSH1 0x0 PUSH1 0x20 DUP3 ADD SWAP1 POP PUSH2 0x4DE PUSH1 0x0 DUP4 ADD DUP5 PUSH2 0x4BA JUMP JUMPDEST SWAP3 SWAP2 POP POP JUMP JUMPDEST PUSH1 0x0 DUP2 MLOAD SWAP1 POP SWAP2 SWAP1 POP JUMP JUMPDEST PUSH1 0x0 DUP3 DUP3 MSTORE PUSH1 0x20 DUP3 ADD SWAP1 POP SWAP3 SWAP2 POP POP JUMP JUMPDEST PUSH1 0x0 PUSH2 0x50B DUP3 PUSH2 0x4E4 JUMP JUMPDEST PUSH2 0x515 DUP2 DUP6 PUSH2 0x4EF JUMP JUMPDEST SWAP4 POP PUSH2 0x525 DUP2 DUP6 PUSH1 0x20 DUP7 ADD PUSH2 0x27D JUMP JUMPDEST PUSH2 0x52E DUP2 PUSH2 0x2B0 JUMP JUMPDEST DUP5 ADD SWAP2 POP POP SWAP3 SWAP2 POP POP JUMP JUMPDEST PUSH1 0x0 PUSH1 0x20 DUP3 ADD SWAP1 POP DUP2 DUP2 SUB PUSH1 0x0 DUP4 ADD MSTORE PUSH2 0x553 DUP2 DUP5 PUSH2 0x500 JUMP JUMPDEST SWAP1 POP SWAP3 SWAP2 POP POP JUMP JUMPDEST PUSH32 0x4E487B7100000000000000000000000000000000000000000000000000000000 PUSH1 0x0 MSTORE PUSH1 0x22 PUSH1 0x4 MSTORE PUSH1 0x24 PUSH1 0x0 REVERT JUMPDEST PUSH1 0x0 PUSH1 0x2 DUP3 DIV SWAP1 POP PUSH1 0x1 DUP3 AND DUP1 PUSH2 0x5A2 JUMPI PUSH1 0x7F DUP3 AND SWAP2 POP JUMPDEST PUSH1 0x20 DUP3 LT DUP2 SUB PUSH2 0x5B5 JUMPI PUSH2 0x5B4 PUSH2 0x55B JUMP JUMPDEST JUMPDEST POP SWAP2 SWAP1 POP JUMP JUMPDEST PUSH1 0x0 DUP2 SWAP1 POP DUP2 PUSH1 0x0 MSTORE PUSH1 0x20 PUSH1 0x0 KECCAK256 SWAP1 POP SWAP2 SWAP1 POP JUMP JUMPDEST PUSH1 0x0 DUP2 SLOAD PUSH2 0x5DD DUP2 PUSH2 0x58A JUMP JUMPDEST PUSH2 0x5E7 DUP2 DUP7 PUSH2 0x26C JUMP JUMPDEST SWAP5 POP PUSH1 0x1 DUP3 AND PUSH1 0x0 DUP2 EQ PUSH2 0x602 JUMPI PUSH1 0x1 DUP2 EQ PUSH2 0x618 JUMPI PUSH2 0x64B JUMP JUMPDEST PUSH1 0xFF NOT DUP4 AND DUP7 MSTORE DUP2 ISZERO ISZERO PUSH1 0x20 MUL DUP7 ADD SWAP4 POP PUSH2 0x64B JUMP JUMPDEST PUSH2 0x621 DUP6 PUSH2 0x5BB JUMP JUMPDEST PUSH1 0x0 JUMPDEST DUP4 DUP2 LT ISZERO PUSH2 0x643 JUMPI DUP2 SLOAD DUP2 DUP10 ADD MSTORE PUSH1 0x1 DUP3 ADD SWAP2 POP PUSH1 0x20 DUP2 ADD SWAP1 POP PUSH2 0x624 JUMP JUMPDEST DUP1 DUP9 ADD SWAP6 POP POP POP JUMPDEST POP POP POP SWAP3 SWAP2 POP POP JUMP JUMPDEST PUSH1 0x0 PUSH1 0x20 DUP3 ADD SWAP1 POP DUP2 DUP2 SUB PUSH1 0x0 DUP4 ADD MSTORE PUSH2 0x66E DUP2 DUP5 PUSH2 0x5D0 JUMP JUMPDEST SWAP1 POP SWAP3 SWAP2 POP POP JUMP JUMPDEST PUSH1 0x0 PUSH1 0x20 PUSH1 0x1F DUP4 ADD DIV SWAP1 POP SWAP2 SWAP1 POP JUMP JUMPDEST PUSH1 0x0 DUP3 DUP3 SHL SWAP1 POP SWAP3 SWAP2 POP POP JUMP JUMPDEST PUSH1 0x0 PUSH1 0x8 DUP4 MUL PUSH2 0x6C3 PUSH32 0xFFFFFFFFFFFFFFFFFFFFFFFFFFFFFFFFFFFFFFFFFFFFFFFFFFFFFFFFFFFFFFFF DUP3 PUSH2 0x686 JUMP JUMPDEST PUSH2 0x6CD DUP7 DUP4 PUSH2 0x686 JUMP JUMPDEST SWAP6 POP DUP1 NOT DUP5 AND SWAP4 POP DUP1 DUP7 AND DUP5 OR SWAP3 POP POP POP SWAP4 SWAP3 POP POP POP JUMP JUMPDEST PUSH1 0x0 DUP2 SWAP1 POP SWAP2 SWAP1 POP JUMP JUMPDEST PUSH1 0x0 DUP2 SWAP1 POP SWAP2 SWAP1 POP JUMP JUMPDEST PUSH1 0x0 PUSH2 0x714 PUSH2 0x70F PUSH2 0x70A DUP5 PUSH2 0x6E5 JUMP JUMPDEST PUSH2 0x6EF JUMP JUMPDEST PUSH2 0x6E5 JUMP JUMPDEST SWAP1 POP SWAP2 SWAP1 POP JUMP JUMPDEST PUSH1 0x0 DUP2 SWAP1 POP SWAP2 SWAP1 POP JUMP JUMPDEST PUSH2 0x72E DUP4 PUSH2 0x6F9 JUMP JUMPDEST PUSH2 0x742 PUSH2 0x73A DUP3 PUSH2 0x71B JUMP JUMPDEST DUP5 DUP5 SLOAD PUSH2 0x693 JUMP JUMPDEST DUP3 SSTORE POP POP POP POP JUMP JUMPDEST PUSH1 0x0 SWAP1 JUMP JUMPDEST PUSH2 0x757 PUSH2 0x74A JUMP JUMPDEST PUSH2 0x762 DUP2 DUP5 DUP5 PUSH2 0x725 JUMP JUMPDEST POP POP POP JUMP JUMPDEST JUMPDEST DUP2 DUP2 LT ISZERO PUSH2 0x786 JUMPI PUSH2 0x77B PUSH1 0x0 DUP3 PUSH2 0x74F JUMP JUMPDEST PUSH1 0x1 DUP2 ADD SWAP1 POP PUSH2 0x768 JUMP JUMPDEST POP POP JUMP JUMPDEST PUSH1 0x1F DUP3 GT ISZERO PUSH2 0x7CB JUMPI PUSH2 0x79C DUP2 PUSH2 0x5BB JUMP JUMPDEST PUSH2 0x7A5 DUP5 PUSH2 0x676 JUMP JUMPDEST DUP2 ADD PUSH1 0x20 DUP6 LT ISZERO PUSH2 0x7B4 JUMPI DUP2 SWAP1 POP JUMPDEST PUSH2 0x7C8 PUSH2 0x7C0 DUP6 PUSH2 0x676 JUMP JUMPDEST DUP4 ADD DUP3 PUSH2 0x767 JUMP JUMPDEST POP POP JUMPDEST POP POP POP JUMP JUMPDEST PUSH1 0x0 DUP3 DUP3 SHR SWAP1 POP SWAP3 SWAP2 POP POP JUMP JUMPDEST PUSH1 0x0 PUSH2 0x7EE PUSH1 0x0 NOT DUP5 PUSH1 0x8 MUL PUSH2 0x7D0 JUMP JUMPDEST NOT DUP1 DUP4 AND SWAP2 POP POP SWAP3 SWAP2 POP POP JUMP JUMPDEST PUSH1 0x0 PUSH2 0x807 DUP4 DUP4 PUSH2 0x7DD JUMP JUMPDEST SWAP2 POP DUP3 PUSH1 0x2 MUL DUP3 OR SWAP1 POP SWAP3 SWAP2 POP POP JUMP JUMPDEST PUSH2 0x820 DUP3 PUSH2 0x261 JUMP JUMPDEST PUSH8 0xFFFFFFFFFFFFFFFF DUP2 GT ISZERO PUSH2 0x839 JUMPI PUSH2 0x838 PUSH2 0x33A JUMP JUMPDEST JUMPDEST PUSH2 0x843 DUP3 SLOAD PUSH2 0x58A JUMP JUMPDEST PUSH2 0x84E DUP3 DUP3 DUP6 PUSH2 0x78A JUMP JUMPDEST PUSH1 0x0 PUSH1 0x20 SWAP1 POP PUSH1 0x1F DUP4 GT PUSH1 0x1 DUP2 EQ PUSH2 0x881 JUMPI PUSH1 0x0 DUP5 ISZERO PUSH2 0x86F JUMPI DUP3 DUP8 ADD MLOAD SWAP1 POP JUMPDEST PUSH2 0x879 DUP6 DUP3 PUSH2 0x7FB JUMP JUMPDEST DUP7 SSTORE POP PUSH2 0x8E1 JUMP JUMPDEST PUSH1 0x1F NOT DUP5 AND PUSH2 0x88F DUP7 PUSH2 0x5BB JUMP JUMPDEST PUSH1 0x0 JUMPDEST DUP3 DUP2 LT ISZERO PUSH2 0x8B7 JUMPI DUP5 DUP10 ADD MLOAD DUP3 SSTORE PUSH1 0x1 DUP3 ADD SWAP2 POP PUSH1 0x20 DUP6 ADD SWAP5 POP PUSH1 0x20 DUP2 ADD SWAP1 POP PUSH2 0x892 JUMP JUMPDEST DUP7 DUP4 LT ISZERO PUSH2 0x8D4 JUMPI DUP5 DUP10 ADD MLOAD PUSH2 0x8D0 PUSH1 0x1F DUP10 AND DUP3 PUSH2 0x7DD JUMP JUMPDEST DUP4 SSTORE POP JUMPDEST PUSH1 0x1 PUSH1 0x2 DUP9 MUL ADD DUP9 SSTORE POP POP POP JUMPDEST POP POP POP POP POP POP JUMP INVALID LOG2 PUSH5 0x6970667358 0x22 SLT KECCAK256 PUSH18 0x50476188466E9BCEAA240096CE38F2CD2B8D 0xB5 SWAP11 DUP16 0xDE SWAP10 0xDD SWAP6 0xD6 0xF6 MLOAD 0x25 0xC0 JUMPI PUSH5 0x736F6C6343 STOP ADDMOD 0xF STOP CALLER "
				},
				"gasEstimates": {
					"creation": {
						"codeDepositCost": "467000",
						"executionCost": "infinite",
						"totalCost": "infinite"
					},
					"external": {
						"compareTwoStrings(string)": "infinite",
						"myBytes()": "infinite",
						"myString()": "infinite",
						"setMyString(string)": "infinite"
					}
				},
				"methodIdentifiers": {
					"compareTwoStrings(string)": "5ce25353",
					"myBytes()": "712f4602",
					"myString()": "492bfa18",
					"setMyString(string)": "82180568"
				}
			},
			"storageLayout": {
				"storage": [
					{
						"astId": 4,
						"contract": "contracts/ExampleStrings.sol:ExampleStrings",
						"label": "myString",
						"offset": 0,
						"slot": "0",
						"type": "t_string_storage"
					},
					{
						"astId": 7,
						"contract": "contracts/ExampleStrings.sol:ExampleStrings",
						"label": "myBytes",
						"offset": 0,
						"slot": "1",
						"type": "t_bytes_storage"
					}
				],
				"types": {
					"t_bytes_storage": {
						"encoding": "bytes",
						"label": "bytes",
						"numberOfBytes": "32"
					},
					"t_string_storage": {
						"encoding": "bytes",
						"label": "string",
						"numberOfBytes": "32"
					}
				}
			},
			"userdoc": {
				"kind": "user",
				"methods": {},
				"version": 1
			}
		}
	}
}